{
  "transactions": [
    {
      "hash": "0x787a53a0cd29c782d815d33be20870ff9294d18b8f656bc87009f77a901ae8ec",
      "transactionType": "CALL",
      "contractName": null,
      "contractAddress": "0x6c0b53feaccc8f87698e56572b7e0553872a13b8",
      "function": "applyChainUpdates(uint64[],(uint64,bytes[],bytes,(bool,uint128,uint128),(bool,uint128,uint128))[])",
      "arguments": [
        "[]",
        "[(16015286601757825753, [0x0000000000000000000000005c4f817129191987a69f37678fadd443e9b755f8], 0x00000000000000000000000014f07798d7c14b4c15660d85322da71aecf87c0a, (true, 1000000000000000000000, 100000000000000000000), (true, 1000000000000000000000, 100000000000000000000))]"
      ],
      "transaction": {
        "from": "0xf52205f70531e62f7199d3f3835fddcd86791294",
        "to": "0x6c0b53feaccc8f87698e56572b7e0553872a13b8",
        "gas": "0x556ce",
        "value": "0x0",
        "input": "0xe8a1da1700000000000000000000000000000000000000000000000000000000000000400000000000000000000000000000000000000000000000000000000000000060000000000000000000000000000000000000000000000000000000000000000000000000000000000000000000000000000000000000000000000000000000010000000000000000000000000000000000000000000000000000000000000020000000000000000000000000000000000000000000000000de41ba4fc9d91ad9000000000000000000000000000000000000000000000000000000000000012000000000000000000000000000000000000000000000000000000000000001a0000000000000000000000000000000000000000000000000000000000000000100000000000000000000000000000000000000000000003635c9adc5dea000000000000000000000000000000000000000000000000000056bc75e2d63100000000000000000000000000000000000000000000000000000000000000000000100000000000000000000000000000000000000000000003635c9adc5dea000000000000000000000000000000000000000000000000000056bc75e2d631000000000000000000000000000000000000000000000000000000000000000000001000000000000000000000000000000000000000000000000000000000000002000000000000000000000000000000000000000000000000000000000000000200000000000000000000000005c4f817129191987a69f37678fadd443e9b755f8000000000000000000000000000000000000000000000000000000000000002000000000000000000000000014f07798d7c14b4c15660d85322da71aecf87c0a",
        "nonce": "0x18",
        "chainId": "0x12c",
        "zksync": {
          "factoryDeps": [],
          "paymasterData": null
        }
      },
      "additionalContracts": [],
      "isFixedGasLimit": false
    }
  ],
  "receipts": [
    {
      "status": "0x1",
      "cumulativeGasUsed": "0x0",
      "logs": [
        {
          "address": "0x000000000000000000000000000000000000800a",
          "topics": [
            "0xddf252ad1be2c89b69c2b068fc378daa952ba7f163c4a11628f55a4df523b3ef",
            "0x000000000000000000000000f52205f70531e62f7199d3f3835fddcd86791294",
            "0x0000000000000000000000000000000000000000000000000000000000008001"
          ],
          "data": "0x000000000000000000000000000000000000000000000000000007c85de2d380",
          "blockHash": "0x75a2b7450dfce3487a5a6b4bdec80c6dc2e1cedc8bc335841500e1cd37b690af",
          "blockNumber": "0x514421",
          "blockTimestamp": "0x6856f5df",
          "transactionHash": "0x787a53a0cd29c782d815d33be20870ff9294d18b8f656bc87009f77a901ae8ec",
          "transactionIndex": "0x0",
          "logIndex": "0x0",
          "removed": false
        },
        {
          "address": "0x6c0b53feaccc8f87698e56572b7e0553872a13b8",
          "topics": [
            "0x7d628c9a1796743d365ab521a8b2a4686e419b3269919dc9145ea2ce853b54ea",
            "0x000000000000000000000000000000000000000000000000de41ba4fc9d91ad9"
          ],
          "data": "0x000000000000000000000000000000000000000000000000000000000000002000000000000000000000000000000000000000000000000000000000000000200000000000000000000000005c4f817129191987a69f37678fadd443e9b755f8",
          "blockHash": "0x75a2b7450dfce3487a5a6b4bdec80c6dc2e1cedc8bc335841500e1cd37b690af",
          "blockNumber": "0x514421",
          "blockTimestamp": "0x6856f5df",
          "transactionHash": "0x787a53a0cd29c782d815d33be20870ff9294d18b8f656bc87009f77a901ae8ec",
          "transactionIndex": "0x0",
          "logIndex": "0x1",
          "removed": false
        },
        {
          "address": "0x6c0b53feaccc8f87698e56572b7e0553872a13b8",
          "topics": [
            "0x8d340f17e19058004c20453540862a9c62778504476f6756755cb33bcd6c38c2"
          ],
          "data": "0x000000000000000000000000000000000000000000000000de41ba4fc9d91ad90000000000000000000000000000000000000000000000000000000000000100000000000000000000000000000000000000000000000000000000000000000100000000000000000000000000000000000000000000003635c9adc5dea000000000000000000000000000000000000000000000000000056bc75e2d63100000000000000000000000000000000000000000000000000000000000000000000100000000000000000000000000000000000000000000003635c9adc5dea000000000000000000000000000000000000000000000000000056bc75e2d63100000000000000000000000000000000000000000000000000000000000000000002000000000000000000000000014f07798d7c14b4c15660d85322da71aecf87c0a",
          "blockHash": "0x75a2b7450dfce3487a5a6b4bdec80c6dc2e1cedc8bc335841500e1cd37b690af",
          "blockNumber": "0x514421",
          "blockTimestamp": "0x6856f5df",
          "transactionHash": "0x787a53a0cd29c782d815d33be20870ff9294d18b8f656bc87009f77a901ae8ec",
          "transactionIndex": "0x0",
          "logIndex": "0x2",
          "removed": false
        },
        {
          "address": "0x000000000000000000000000000000000000800a",
          "topics": [
            "0xddf252ad1be2c89b69c2b068fc378daa952ba7f163c4a11628f55a4df523b3ef",
            "0x0000000000000000000000000000000000000000000000000000000000008001",
            "0x000000000000000000000000f52205f70531e62f7199d3f3835fddcd86791294"
          ],
          "data": "0x000000000000000000000000000000000000000000000000000003b9fd175d80",
          "blockHash": "0x75a2b7450dfce3487a5a6b4bdec80c6dc2e1cedc8bc335841500e1cd37b690af",
          "blockNumber": "0x514421",
          "blockTimestamp": "0x6856f5df",
          "transactionHash": "0x787a53a0cd29c782d815d33be20870ff9294d18b8f656bc87009f77a901ae8ec",
          "transactionIndex": "0x0",
          "logIndex": "0x3",
          "removed": false
        }
      ],
      "logsBloom": "0x00000000000400400000000000000000000000000000001000000000000000000000000000004000000000000000000000000000000000000004000000000004000000000000040000000008000000000000000200000000000000000000080000000000000000001000000000090000000000000000000000000010000000400000000000000000000004000000000000000020000000000000000000000000000000000000100000000000000000000000000000000000000000000000000000000002008000000000000000000000000000000000000010000000000000000000004000000000000000000000000000000000008000000100000000000000",
      "type": "0x71",
      "transactionHash": "0x787a53a0cd29c782d815d33be20870ff9294d18b8f656bc87009f77a901ae8ec",
      "transactionIndex": "0x0",
      "blockHash": "0x75a2b7450dfce3487a5a6b4bdec80c6dc2e1cedc8bc335841500e1cd37b690af",
      "blockNumber": "0x514421",
      "gasUsed": "0x2b8d8",
      "effectiveGasPrice": "0x17d7840",
      "from": "0xf52205f70531e62f7199d3f3835fddcd86791294",
      "to": "0x6c0b53feaccc8f87698e56572b7e0553872a13b8",
      "contractAddress": null,
      "l1BatchNumber": null,
      "l1BatchTxIndex": null,
      "l2ToL1Logs": []
    }
  ],
  "libraries": [],
  "pending": [],
  "returns": {},
  "timestamp": 1750529504,
  "chain": 300,
  "commit": null
}