{
  "transactions": [
    {
      "hash": "0x3d99d11220556909889de33421e341e6624861c53fe6a87a811b381d33885009",
      "transactionType": "CALL",
      "contractName": null,
      "contractAddress": "0x6634f7db2a48281d7ba0962b53fe4bd155af2c7c",
      "function": "applyChainUpdates(uint64[],(uint64,bytes[],bytes,(bool,uint128,uint128),(bool,uint128,uint128))[])",
      "arguments": [
        "[]",
        "[(16015286601757825753, [0x000000000000000000000000bdf8bb3ed3aaf8127cf57424c676074f5d5342c0], 0x000000000000000000000000d4aecd83ef77d46bdce8698c3b8b086e8d44b32f, (true, 100000, 167), (true, 100000, 167))]"
      ],
      "transaction": {
        "from": "0xf52205f70531e62f7199d3f3835fddcd86791294",
        "to": "0x6634f7db2a48281d7ba0962b53fe4bd155af2c7c",
        "gas": "0x55491",
        "value": "0x0",
        "input": "0xe8a1da1700000000000000000000000000000000000000000000000000000000000000400000000000000000000000000000000000000000000000000000000000000060000000000000000000000000000000000000000000000000000000000000000000000000000000000000000000000000000000000000000000000000000000010000000000000000000000000000000000000000000000000000000000000020000000000000000000000000000000000000000000000000de41ba4fc9d91ad9000000000000000000000000000000000000000000000000000000000000012000000000000000000000000000000000000000000000000000000000000001a0000000000000000000000000000000000000000000000000000000000000000100000000000000000000000000000000000000000000000000000000000186a000000000000000000000000000000000000000000000000000000000000000a7000000000000000000000000000000000000000000000000000000000000000100000000000000000000000000000000000000000000000000000000000186a000000000000000000000000000000000000000000000000000000000000000a7000000000000000000000000000000000000000000000000000000000000000100000000000000000000000000000000000000000000000000000000000000200000000000000000000000000000000000000000000000000000000000000020000000000000000000000000bdf8bb3ed3aaf8127cf57424c676074f5d5342c00000000000000000000000000000000000000000000000000000000000000020000000000000000000000000d4aecd83ef77d46bdce8698c3b8b086e8d44b32f",
        "nonce": "0x1f",
        "chainId": "0x12c",
        "zksync": {
          "factoryDeps": [],
          "paymasterData": null
        }
      },
      "additionalContracts": [],
      "isFixedGasLimit": false
    }
  ],
  "receipts": [
    {
      "status": "0x1",
      "cumulativeGasUsed": "0x0",
      "logs": [
        {
          "address": "0x000000000000000000000000000000000000800a",
          "topics": [
            "0xddf252ad1be2c89b69c2b068fc378daa952ba7f163c4a11628f55a4df523b3ef",
            "0x000000000000000000000000f52205f70531e62f7199d3f3835fddcd86791294",
            "0x0000000000000000000000000000000000000000000000000000000000008001"
          ],
          "data": "0x000000000000000000000000000000000000000000000000000007c50511bbc0",
          "blockHash": "0x904b856e40a93c83fa4dd98cdd235ec71728b809e7fb5d1c593b79a9d6771f8c",
          "blockNumber": "0x5144d6",
          "blockTimestamp": "0x68570ba6",
          "transactionHash": "0x3d99d11220556909889de33421e341e6624861c53fe6a87a811b381d33885009",
          "transactionIndex": "0x0",
          "logIndex": "0x0",
          "removed": false
        },
        {
          "address": "0x6634f7db2a48281d7ba0962b53fe4bd155af2c7c",
          "topics": [
            "0x7d628c9a1796743d365ab521a8b2a4686e419b3269919dc9145ea2ce853b54ea",
            "0x000000000000000000000000000000000000000000000000de41ba4fc9d91ad9"
          ],
          "data": "0x00000000000000000000000000000000000000000000000000000000000000200000000000000000000000000000000000000000000000000000000000000020000000000000000000000000bdf8bb3ed3aaf8127cf57424c676074f5d5342c0",
          "blockHash": "0x904b856e40a93c83fa4dd98cdd235ec71728b809e7fb5d1c593b79a9d6771f8c",
          "blockNumber": "0x5144d6",
          "blockTimestamp": "0x68570ba6",
          "transactionHash": "0x3d99d11220556909889de33421e341e6624861c53fe6a87a811b381d33885009",
          "transactionIndex": "0x0",
          "logIndex": "0x1",
          "removed": false
        },
        {
          "address": "0x6634f7db2a48281d7ba0962b53fe4bd155af2c7c",
          "topics": [
            "0x8d340f17e19058004c20453540862a9c62778504476f6756755cb33bcd6c38c2"
          ],
          "data": "0x000000000000000000000000000000000000000000000000de41ba4fc9d91ad90000000000000000000000000000000000000000000000000000000000000100000000000000000000000000000000000000000000000000000000000000000100000000000000000000000000000000000000000000000000000000000186a000000000000000000000000000000000000000000000000000000000000000a7000000000000000000000000000000000000000000000000000000000000000100000000000000000000000000000000000000000000000000000000000186a000000000000000000000000000000000000000000000000000000000000000a70000000000000000000000000000000000000000000000000000000000000020000000000000000000000000d4aecd83ef77d46bdce8698c3b8b086e8d44b32f",
          "blockHash": "0x904b856e40a93c83fa4dd98cdd235ec71728b809e7fb5d1c593b79a9d6771f8c",
          "blockNumber": "0x5144d6",
          "blockTimestamp": "0x68570ba6",
          "transactionHash": "0x3d99d11220556909889de33421e341e6624861c53fe6a87a811b381d33885009",
          "transactionIndex": "0x0",
          "logIndex": "0x2",
          "removed": false
        },
        {
          "address": "0x000000000000000000000000000000000000800a",
          "topics": [
            "0xddf252ad1be2c89b69c2b068fc378daa952ba7f163c4a11628f55a4df523b3ef",
            "0x0000000000000000000000000000000000000000000000000000000000008001",
            "0x000000000000000000000000f52205f70531e62f7199d3f3835fddcd86791294"
          ],
          "data": "0x000000000000000000000000000000000000000000000000000003b8cb9e1240",
          "blockHash": "0x904b856e40a93c83fa4dd98cdd235ec71728b809e7fb5d1c593b79a9d6771f8c",
          "blockNumber": "0x5144d6",
          "blockTimestamp": "0x68570ba6",
          "transactionHash": "0x3d99d11220556909889de33421e341e6624861c53fe6a87a811b381d33885009",
          "transactionIndex": "0x0",
          "logIndex": "0x3",
          "removed": false
        }
      ],
      "logsBloom": "0x00000000000400400000000000000000000000000000001000000000000000000000000000004000000000000000000000000000002000000004000000000004000000000000040000000018000000000000000000000000000000000000080000000000000000000000000000090000000000000000000000000010000000400000000000000000000004000000000000000020000000000000000000000000000000000000100000000000000000000000000000000000000000000000000000000002008000000000000000000000000000000000000000000000000000000000004000000000000000000000000000000000108000000100000000000000",
      "type": "0x71",
      "transactionHash": "0x3d99d11220556909889de33421e341e6624861c53fe6a87a811b381d33885009",
      "transactionIndex": "0x0",
      "blockHash": "0x904b856e40a93c83fa4dd98cdd235ec71728b809e7fb5d1c593b79a9d6771f8c",
      "blockNumber": "0x5144d6",
      "gasUsed": "0x2b766",
      "effectiveGasPrice": "0x17d7840",
      "from": "0xf52205f70531e62f7199d3f3835fddcd86791294",
      "to": "0x6634f7db2a48281d7ba0962b53fe4bd155af2c7c",
      "contractAddress": null,
      "l1BatchNumber": null,
      "l1BatchTxIndex": null,
      "l2ToL1Logs": []
    }
  ],
  "libraries": [],
  "pending": [],
  "returns": {},
  "timestamp": 1750535079,
  "chain": 300,
  "commit": null
}