{
  "transactions": [
    {
      "hash": "0xb8525adc1e2ab15449e2e4e09629be2962ca9bf58fcf853dbc90b4022cb9903d",
      "transactionType": "CALL",
      "contractName": null,
      "contractAddress": "0xf39de7d593aabe4d9c73804700b8dc2227c57996",
      "function": "applyChainUpdates(uint64[],(uint64,bytes[],bytes,(bool,uint128,uint128),(bool,uint128,uint128))[])",
      "arguments": [
        "[]",
        "[(6898391096552792247, [0x000000000000000000000000b5a967dbaa3baf55f7eb1bd33ed3efadb1e4a260], 0x00000000000000000000000095960bd4d172ea75e8f8898a1ad72d1cc72c7111, (false, 0, 0), (false, 0, 0))]"
      ],
      "transaction": {
        "from": "0xf52205f70531e62f7199d3f3835fddcd86791294",
        "to": "0xf39de7d593aabe4d9c73804700b8dc2227c57996",
        "gas": "0x6a300",
        "value": "0x0",
        "input": "0xe8a1da17000000000000000000000000000000000000000000000000000000000000004000000000000000000000000000000000000000000000000000000000000000600000000000000000000000000000000000000000000000000000000000000000000000000000000000000000000000000000000000000000000000000000000100000000000000000000000000000000000000000000000000000000000000200000000000000000000000000000000000000000000000005fbc02272fbf20b7000000000000000000000000000000000000000000000000000000000000012000000000000000000000000000000000000000000000000000000000000001a0000000000000000000000000000000000000000000000000000000000000000000000000000000000000000000000000000000000000000000000000000000000000000000000000000000000000000000000000000000000000000000000000000000000000000000000000000000000000000000000000000000000000000000000000000000000000000000000000000000000000000000000000000000000000000000000000000000000000000000000000000000000000000000000000000000000000000000000000000000000000000000000000000000000000000100000000000000000000000000000000000000000000000000000000000000200000000000000000000000000000000000000000000000000000000000000020000000000000000000000000b5a967dbaa3baf55f7eb1bd33ed3efadb1e4a260000000000000000000000000000000000000000000000000000000000000002000000000000000000000000095960bd4d172ea75e8f8898a1ad72d1cc72c7111",
        "nonce": "0xcf",
        "chainId": "0xaa36a7"
      },
      "additionalContracts": [],
      "isFixedGasLimit": false
    }
  ],
  "receipts": [
    {
      "status": "0x1",
      "cumulativeGasUsed": "0xf8139e",
      "logs": [
        {
          "address": "0xf39de7d593aabe4d9c73804700b8dc2227c57996",
          "topics": [
            "0x7d628c9a1796743d365ab521a8b2a4686e419b3269919dc9145ea2ce853b54ea",
            "0x0000000000000000000000000000000000000000000000005fbc02272fbf20b7"
          ],
          "data": "0x00000000000000000000000000000000000000000000000000000000000000200000000000000000000000000000000000000000000000000000000000000020000000000000000000000000b5a967dbaa3baf55f7eb1bd33ed3efadb1e4a260",
          "blockHash": "0x9f74836a1f60e30ef5b787069b1176815c9820b7f1965c3c212261f11d916f3f",
          "blockNumber": "0x837509",
          "transactionHash": "0xb8525adc1e2ab15449e2e4e09629be2962ca9bf58fcf853dbc90b4022cb9903d",
          "transactionIndex": "0x4c",
          "logIndex": "0x4f",
          "removed": false
        },
        {
          "address": "0xf39de7d593aabe4d9c73804700b8dc2227c57996",
          "topics": [
            "0x8d340f17e19058004c20453540862a9c62778504476f6756755cb33bcd6c38c2"
          ],
          "data": "0x0000000000000000000000000000000000000000000000005fbc02272fbf20b70000000000000000000000000000000000000000000000000000000000000100000000000000000000000000000000000000000000000000000000000000000000000000000000000000000000000000000000000000000000000000000000000000000000000000000000000000000000000000000000000000000000000000000000000000000000000000000000000000000000000000000000000000000000000000000000000000000000000000000000000000000000000000000000000000000000000000000000000000000000000000000000000000000000000000000000000000000000000000000000000000000000000000000000000000002000000000000000000000000095960bd4d172ea75e8f8898a1ad72d1cc72c7111",
          "blockHash": "0x9f74836a1f60e30ef5b787069b1176815c9820b7f1965c3c212261f11d916f3f",
          "blockNumber": "0x837509",
          "transactionHash": "0xb8525adc1e2ab15449e2e4e09629be2962ca9bf58fcf853dbc90b4022cb9903d",
          "transactionIndex": "0x4c",
          "logIndex": "0x50",
          "removed": false
        }
      ],
      "logsBloom": "0x00000000000000400000000000000000000000020000000000000000000000000000000000000000000000000000000000000000000000000004000000000004000000000000000000000000040000200000000000000000000000000000000000000000000000000000000000000040000000000000000000000000000000400000000000000000000000000000000000000000000000000000000000000000000000000000008000000000000000000000000000000000000000000000000000000000000000000000000000000000000000400000000000000000000000000000000000000000000000000000000000000000008000000100000000000000",
      "type": "0x2",
      "transactionHash": "0xb8525adc1e2ab15449e2e4e09629be2962ca9bf58fcf853dbc90b4022cb9903d",
      "transactionIndex": "0x4c",
      "blockHash": "0x9f74836a1f60e30ef5b787069b1176815c9820b7f1965c3c212261f11d916f3f",
      "blockNumber": "0x837509",
      "gasUsed": "0x4ce0d",
      "effectiveGasPrice": "0x2fb805",
      "from": "0xf52205f70531e62f7199d3f3835fddcd86791294",
      "to": "0xf39de7d593aabe4d9c73804700b8dc2227c57996",
      "contractAddress": null
    }
  ],
  "libraries": [],
  "pending": [],
  "returns": {},
  "timestamp": 1750725014,
  "chain": 11155111,
  "commit": null
}