{
  "transactions": [
    {
      "hash": "0xa44ba25f457b2a7d334c040eb9919ab4c8fc3a056a8fe28411103ee2abe4f92f",
      "transactionType": "CALL",
      "contractName": null,
      "contractAddress": "0x4a11c4f0f3df2d758fbc102e73b07e26f93b0e2a",
      "function": "applyChainUpdates(uint64[],(uint64,bytes[],bytes,(bool,uint128,uint128),(bool,uint128,uint128))[])",
      "arguments": [
        "[]",
        "[(6898391096552792247, [0x0000000000000000000000008ed7587c77f01e3c608b2609ab70ba8ff1022b25], 0x0000000000000000000000005763e786fd5dfd4ce2bc8ac95e172cb98a119f68, (false, 0, 0), (false, 0, 0))]"
      ],
      "transaction": {
        "from": "0xf52205f70531e62f7199d3f3835fddcd86791294",
        "to": "0x4a11c4f0f3df2d758fbc102e73b07e26f93b0e2a",
        "gas": "0x6a300",
        "value": "0x0",
        "input": "0xe8a1da17000000000000000000000000000000000000000000000000000000000000004000000000000000000000000000000000000000000000000000000000000000600000000000000000000000000000000000000000000000000000000000000000000000000000000000000000000000000000000000000000000000000000000100000000000000000000000000000000000000000000000000000000000000200000000000000000000000000000000000000000000000005fbc02272fbf20b7000000000000000000000000000000000000000000000000000000000000012000000000000000000000000000000000000000000000000000000000000001a00000000000000000000000000000000000000000000000000000000000000000000000000000000000000000000000000000000000000000000000000000000000000000000000000000000000000000000000000000000000000000000000000000000000000000000000000000000000000000000000000000000000000000000000000000000000000000000000000000000000000000000000000000000000000000000000000000000000000000000000000000000000000000000000000000000000000000000000000000000000000000000000000000000000000001000000000000000000000000000000000000000000000000000000000000002000000000000000000000000000000000000000000000000000000000000000200000000000000000000000008ed7587c77f01e3c608b2609ab70ba8ff1022b2500000000000000000000000000000000000000000000000000000000000000200000000000000000000000005763e786fd5dfd4ce2bc8ac95e172cb98a119f68",
        "nonce": "0x47",
        "chainId": "0xaa36a7"
      },
      "additionalContracts": [],
      "isFixedGasLimit": false
    }
  ],
  "receipts": [
    {
      "status": "0x1",
      "cumulativeGasUsed": "0x98084e",
      "logs": [
        {
          "address": "0x4a11c4f0f3df2d758fbc102e73b07e26f93b0e2a",
          "topics": [
            "0x7d628c9a1796743d365ab521a8b2a4686e419b3269919dc9145ea2ce853b54ea",
            "0x0000000000000000000000000000000000000000000000005fbc02272fbf20b7"
          ],
          "data": "0x000000000000000000000000000000000000000000000000000000000000002000000000000000000000000000000000000000000000000000000000000000200000000000000000000000008ed7587c77f01e3c608b2609ab70ba8ff1022b25",
          "blockHash": "0xbc657d13cc41656c6a450a0b374cc3632ceebe92885999daa9aad55dd1dc15d6",
          "blockNumber": "0x834d33",
          "transactionHash": "0xa44ba25f457b2a7d334c040eb9919ab4c8fc3a056a8fe28411103ee2abe4f92f",
          "transactionIndex": "0x68",
          "logIndex": "0x77",
          "removed": false
        },
        {
          "address": "0x4a11c4f0f3df2d758fbc102e73b07e26f93b0e2a",
          "topics": [
            "0x8d340f17e19058004c20453540862a9c62778504476f6756755cb33bcd6c38c2"
          ],
          "data": "0x0000000000000000000000000000000000000000000000005fbc02272fbf20b7000000000000000000000000000000000000000000000000000000000000010000000000000000000000000000000000000000000000000000000000000000000000000000000000000000000000000000000000000000000000000000000000000000000000000000000000000000000000000000000000000000000000000000000000000000000000000000000000000000000000000000000000000000000000000000000000000000000000000000000000000000000000000000000000000000000000000000000000000000000000000000000000000000000000000000000000000000000000000000000000000000000000000000000000000000200000000000000000000000005763e786fd5dfd4ce2bc8ac95e172cb98a119f68",
          "blockHash": "0xbc657d13cc41656c6a450a0b374cc3632ceebe92885999daa9aad55dd1dc15d6",
          "blockNumber": "0x834d33",
          "transactionHash": "0xa44ba25f457b2a7d334c040eb9919ab4c8fc3a056a8fe28411103ee2abe4f92f",
          "transactionIndex": "0x68",
          "logIndex": "0x78",
          "removed": false
        }
      ],
      "logsBloom": "0x00000000000000400000000000000000000000000000000000000000000000000000000000000000000000000000000000000000000000000004000000000004000000000000000000000000040000000000000000004000000000000000000000000000000100000000000000000040000000000000000000000000000000400000000000000000000000000000000000000200000000000000000000000000000000000000008000000000000000000000000000000000000000000000000000000000000000000000000000000000000000000000000000000000000000000000000000000000000000000000000000000000008000000100000000000000",
      "type": "0x2",
      "transactionHash": "0xa44ba25f457b2a7d334c040eb9919ab4c8fc3a056a8fe28411103ee2abe4f92f",
      "transactionIndex": "0x68",
      "blockHash": "0xbc657d13cc41656c6a450a0b374cc3632ceebe92885999daa9aad55dd1dc15d6",
      "blockNumber": "0x834d33",
      "gasUsed": "0x4ce0d",
      "effectiveGasPrice": "0x1295e9",
      "from": "0xf52205f70531e62f7199d3f3835fddcd86791294",
      "to": "0x4a11c4f0f3df2d758fbc102e73b07e26f93b0e2a",
      "contractAddress": null
    }
  ],
  "libraries": [],
  "pending": [],
  "returns": {},
  "timestamp": 1750602505,
  "chain": 11155111,
  "commit": null
}