{
  "transactions": [
    {
      "hash": "0x85e8c410466d8a05c06a3a1e9fad479949955807d64a1bfea143352ef9a5b937",
      "transactionType": "CALL",
      "contractName": null,
      "contractAddress": "0x4e07157e3a310b8a1cbc974c4ee48ebc162b60a6",
      "function": "applyChainUpdates(uint64[],(uint64,bytes[],bytes,(bool,uint128,uint128),(bool,uint128,uint128))[])",
      "arguments": [
        "[]",
        "[(6898391096552792247, [0x0000000000000000000000002aee0f753c62d88f92ba226bcdc59f031dc166de], 0x000000000000000000000000b9cff7f581437b61e22bf12456ff2b775b0d7694, (false, 0, 0), (false, 0, 0))]"
      ],
      "transaction": {
        "from": "0xf52205f70531e62f7199d3f3835fddcd86791294",
        "to": "0x4e07157e3a310b8a1cbc974c4ee48ebc162b60a6",
        "gas": "0x6a300",
        "value": "0x0",
        "input": "0xe8a1da17000000000000000000000000000000000000000000000000000000000000004000000000000000000000000000000000000000000000000000000000000000600000000000000000000000000000000000000000000000000000000000000000000000000000000000000000000000000000000000000000000000000000000100000000000000000000000000000000000000000000000000000000000000200000000000000000000000000000000000000000000000005fbc02272fbf20b7000000000000000000000000000000000000000000000000000000000000012000000000000000000000000000000000000000000000000000000000000001a00000000000000000000000000000000000000000000000000000000000000000000000000000000000000000000000000000000000000000000000000000000000000000000000000000000000000000000000000000000000000000000000000000000000000000000000000000000000000000000000000000000000000000000000000000000000000000000000000000000000000000000000000000000000000000000000000000000000000000000000000000000000000000000000000000000000000000000000000000000000000000000000000000000000000001000000000000000000000000000000000000000000000000000000000000002000000000000000000000000000000000000000000000000000000000000000200000000000000000000000002aee0f753c62d88f92ba226bcdc59f031dc166de0000000000000000000000000000000000000000000000000000000000000020000000000000000000000000b9cff7f581437b61e22bf12456ff2b775b0d7694",
        "nonce": "0xbc",
        "chainId": "0xaa36a7"
      },
      "additionalContracts": [],
      "isFixedGasLimit": false
    }
  ],
  "receipts": [
    {
      "status": "0x1",
      "cumulativeGasUsed": "0x20c3c5e",
      "logs": [
        {
          "address": "0x4e07157e3a310b8a1cbc974c4ee48ebc162b60a6",
          "topics": [
            "0x7d628c9a1796743d365ab521a8b2a4686e419b3269919dc9145ea2ce853b54ea",
            "0x0000000000000000000000000000000000000000000000005fbc02272fbf20b7"
          ],
          "data": "0x000000000000000000000000000000000000000000000000000000000000002000000000000000000000000000000000000000000000000000000000000000200000000000000000000000002aee0f753c62d88f92ba226bcdc59f031dc166de",
          "blockHash": "0x78844ddb9dcf3869e56e4be54a8f58cd1fce79f030add035ce4f5af86ee2aad1",
          "blockNumber": "0x837451",
          "transactionHash": "0x85e8c410466d8a05c06a3a1e9fad479949955807d64a1bfea143352ef9a5b937",
          "transactionIndex": "0xa8",
          "logIndex": "0x11c",
          "removed": false
        },
        {
          "address": "0x4e07157e3a310b8a1cbc974c4ee48ebc162b60a6",
          "topics": [
            "0x8d340f17e19058004c20453540862a9c62778504476f6756755cb33bcd6c38c2"
          ],
          "data": "0x0000000000000000000000000000000000000000000000005fbc02272fbf20b700000000000000000000000000000000000000000000000000000000000001000000000000000000000000000000000000000000000000000000000000000000000000000000000000000000000000000000000000000000000000000000000000000000000000000000000000000000000000000000000000000000000000000000000000000000000000000000000000000000000000000000000000000000000000000000000000000000000000000000000000000000000000000000000000000000000000000000000000000000000000000000000000000000000000000000000000000000000000000000000000000000000000000000000000000020000000000000000000000000b9cff7f581437b61e22bf12456ff2b775b0d7694",
          "blockHash": "0x78844ddb9dcf3869e56e4be54a8f58cd1fce79f030add035ce4f5af86ee2aad1",
          "blockNumber": "0x837451",
          "transactionHash": "0x85e8c410466d8a05c06a3a1e9fad479949955807d64a1bfea143352ef9a5b937",
          "transactionIndex": "0xa8",
          "logIndex": "0x11d",
          "removed": false
        }
      ],
      "logsBloom": "0x00000000000000400000000000000000000000000000000000000000000000000000000000000000000000000000000000000000000000000004000000000004000000000000000000000000040000000000000000000000000000000000000000000000000000000000000000000040000000000000000000000000000000400000000000000000000000000000000000000000000000000000000004000000000000000000008000000000000000000000000000000000000000000000000000080000000000000000000000000000200000000000000000000000000000000000000000000000000000000000000000000000008000000100000000000000",
      "type": "0x2",
      "transactionHash": "0x85e8c410466d8a05c06a3a1e9fad479949955807d64a1bfea143352ef9a5b937",
      "transactionIndex": "0xa8",
      "blockHash": "0x78844ddb9dcf3869e56e4be54a8f58cd1fce79f030add035ce4f5af86ee2aad1",
      "blockNumber": "0x837451",
      "gasUsed": "0x4ce0d",
      "effectiveGasPrice": "0x134fb2",
      "from": "0xf52205f70531e62f7199d3f3835fddcd86791294",
      "to": "0x4e07157e3a310b8a1cbc974c4ee48ebc162b60a6",
      "contractAddress": null
    }
  ],
  "libraries": [],
  "pending": [],
  "returns": {},
  "timestamp": 1750722794,
  "chain": 11155111,
  "commit": null
}