{
  "transactions": [
    {
      "hash": "0x16ff0334304393594eb93cbb8d933cf90ce39b01a2fa5a1761cff77f34d02c1d",
      "transactionType": "CALL",
      "contractName": null,
      "contractAddress": "0xfb78b39fe9aee375bca74863693f388b1333d274",
      "function": "applyChainUpdates(uint64[],(uint64,bytes[],bytes,(bool,uint128,uint128),(bool,uint128,uint128))[])",
      "arguments": [
        "[]",
        "[(6898391096552792247, [0x0000000000000000000000009f1e209fb28031af705a9741c663ae4caf1d5b5c], 0x00000000000000000000000029b787d8fe62044dd2f7d361b1596c4c143f0fc7, (false, 0, 0), (false, 0, 0))]"
      ],
      "transaction": {
        "from": "0xf52205f70531e62f7199d3f3835fddcd86791294",
        "to": "0xfb78b39fe9aee375bca74863693f388b1333d274",
        "gas": "0x6a300",
        "value": "0x0",
        "input": "0xe8a1da17000000000000000000000000000000000000000000000000000000000000004000000000000000000000000000000000000000000000000000000000000000600000000000000000000000000000000000000000000000000000000000000000000000000000000000000000000000000000000000000000000000000000000100000000000000000000000000000000000000000000000000000000000000200000000000000000000000000000000000000000000000005fbc02272fbf20b7000000000000000000000000000000000000000000000000000000000000012000000000000000000000000000000000000000000000000000000000000001a00000000000000000000000000000000000000000000000000000000000000000000000000000000000000000000000000000000000000000000000000000000000000000000000000000000000000000000000000000000000000000000000000000000000000000000000000000000000000000000000000000000000000000000000000000000000000000000000000000000000000000000000000000000000000000000000000000000000000000000000000000000000000000000000000000000000000000000000000000000000000000000000000000000000000001000000000000000000000000000000000000000000000000000000000000002000000000000000000000000000000000000000000000000000000000000000200000000000000000000000009f1e209fb28031af705a9741c663ae4caf1d5b5c000000000000000000000000000000000000000000000000000000000000002000000000000000000000000029b787d8fe62044dd2f7d361b1596c4c143f0fc7",
        "nonce": "0xa8",
        "chainId": "0xaa36a7"
      },
      "additionalContracts": [],
      "isFixedGasLimit": false
    }
  ],
  "receipts": [
    {
      "status": "0x1",
      "cumulativeGasUsed": "0x1255f2f",
      "logs": [
        {
          "address": "0xfb78b39fe9aee375bca74863693f388b1333d274",
          "topics": [
            "0x7d628c9a1796743d365ab521a8b2a4686e419b3269919dc9145ea2ce853b54ea",
            "0x0000000000000000000000000000000000000000000000005fbc02272fbf20b7"
          ],
          "data": "0x000000000000000000000000000000000000000000000000000000000000002000000000000000000000000000000000000000000000000000000000000000200000000000000000000000009f1e209fb28031af705a9741c663ae4caf1d5b5c",
          "blockHash": "0xfbcee22dabd87dd93826cee1db1876bd9f62e32157a2b6827d8d2e11deccfca5",
          "blockNumber": "0x83705e",
          "transactionHash": "0x16ff0334304393594eb93cbb8d933cf90ce39b01a2fa5a1761cff77f34d02c1d",
          "transactionIndex": "0xaa",
          "logIndex": "0xf4",
          "removed": false
        },
        {
          "address": "0xfb78b39fe9aee375bca74863693f388b1333d274",
          "topics": [
            "0x8d340f17e19058004c20453540862a9c62778504476f6756755cb33bcd6c38c2"
          ],
          "data": "0x0000000000000000000000000000000000000000000000005fbc02272fbf20b70000000000000000000000000000000000000000000000000000000000000100000000000000000000000000000000000000000000000000000000000000000000000000000000000000000000000000000000000000000000000000000000000000000000000000000000000000000000000000000000000000000000000000000000000000000000000000000000000000000000000000000000000000000000000000000000000000000000000000000000000000000000000000000000000000000000000000000000000000000000000000000000000000000000000000000000000000000000000000000000000000000000000000000000000000002000000000000000000000000029b787d8fe62044dd2f7d361b1596c4c143f0fc7",
          "blockHash": "0xfbcee22dabd87dd93826cee1db1876bd9f62e32157a2b6827d8d2e11deccfca5",
          "blockNumber": "0x83705e",
          "transactionHash": "0x16ff0334304393594eb93cbb8d933cf90ce39b01a2fa5a1761cff77f34d02c1d",
          "transactionIndex": "0xaa",
          "logIndex": "0xf5",
          "removed": false
        }
      ],
      "logsBloom": "0x00000000000000400000000000000000000000000000000000000000000000000000010000000000000000000000000000000000000000000004000000000004000000000000000000000000040000000000000000000000000000000000000000000000000000000000000000000040000000000000000000000000000000400000000000000000000000000000000000000000000000000000000000000000000000000000008000000008000000400000000000000000000000000000000000000000000000000000000000000000000000000000000000000000000000000000000000000000000000000000000000000000008000000100000000000000",
      "type": "0x2",
      "transactionHash": "0x16ff0334304393594eb93cbb8d933cf90ce39b01a2fa5a1761cff77f34d02c1d",
      "transactionIndex": "0xaa",
      "blockHash": "0xfbcee22dabd87dd93826cee1db1876bd9f62e32157a2b6827d8d2e11deccfca5",
      "blockNumber": "0x83705e",
      "gasUsed": "0x4ce0d",
      "effectiveGasPrice": "0x33e7182",
      "from": "0xf52205f70531e62f7199d3f3835fddcd86791294",
      "to": "0xfb78b39fe9aee375bca74863693f388b1333d274",
      "contractAddress": null
    }
  ],
  "libraries": [],
  "pending": [],
  "returns": {},
  "timestamp": 1750710650,
  "chain": 11155111,
  "commit": null
}