{
  "transactions": [
    {
      "hash": "0x47846832f4bb00057d7377b5f9f4fa7e5bc577f3b67fb7832fadf393db1bddef",
      "transactionType": "CALL",
      "contractName": null,
      "contractAddress": "0x6b896b290b3c4be040db69af3e32d200688b8e8c",
      "function": "applyChainUpdates(uint64[],(uint64,bytes[],bytes,(bool,uint128,uint128),(bool,uint128,uint128))[])",
      "arguments": [
        "[]",
        "[(6898391096552792247, [0x000000000000000000000000fd2e232fe310cc397ec19d5033986ceeeb3329da], 0x0000000000000000000000005afb3d542bcca06bc89411b834f507f3660f5903, (false, 0, 0), (false, 0, 0))]"
      ],
      "transaction": {
        "from": "0xf52205f70531e62f7199d3f3835fddcd86791294",
        "to": "0x6b896b290b3c4be040db69af3e32d200688b8e8c",
        "gas": "0x6a300",
        "value": "0x0",
        "input": "0xe8a1da17000000000000000000000000000000000000000000000000000000000000004000000000000000000000000000000000000000000000000000000000000000600000000000000000000000000000000000000000000000000000000000000000000000000000000000000000000000000000000000000000000000000000000100000000000000000000000000000000000000000000000000000000000000200000000000000000000000000000000000000000000000005fbc02272fbf20b7000000000000000000000000000000000000000000000000000000000000012000000000000000000000000000000000000000000000000000000000000001a0000000000000000000000000000000000000000000000000000000000000000000000000000000000000000000000000000000000000000000000000000000000000000000000000000000000000000000000000000000000000000000000000000000000000000000000000000000000000000000000000000000000000000000000000000000000000000000000000000000000000000000000000000000000000000000000000000000000000000000000000000000000000000000000000000000000000000000000000000000000000000000000000000000000000000100000000000000000000000000000000000000000000000000000000000000200000000000000000000000000000000000000000000000000000000000000020000000000000000000000000fd2e232fe310cc397ec19d5033986ceeeb3329da00000000000000000000000000000000000000000000000000000000000000200000000000000000000000005afb3d542bcca06bc89411b834f507f3660f5903",
        "nonce": "0x59",
        "chainId": "0xaa36a7"
      },
      "additionalContracts": [],
      "isFixedGasLimit": false
    }
  ],
  "receipts": [
    {
      "status": "0x1",
      "cumulativeGasUsed": "0x1209620",
      "logs": [
        {
          "address": "0x6b896b290b3c4be040db69af3e32d200688b8e8c",
          "topics": [
            "0x7d628c9a1796743d365ab521a8b2a4686e419b3269919dc9145ea2ce853b54ea",
            "0x0000000000000000000000000000000000000000000000005fbc02272fbf20b7"
          ],
          "data": "0x00000000000000000000000000000000000000000000000000000000000000200000000000000000000000000000000000000000000000000000000000000020000000000000000000000000fd2e232fe310cc397ec19d5033986ceeeb3329da",
          "blockHash": "0x031bd4d63be2d521a7bcf7eb0ae2b2c34b4c406c475134da3c4a0dba979a2d63",
          "blockNumber": "0x834e5b",
          "transactionHash": "0x47846832f4bb00057d7377b5f9f4fa7e5bc577f3b67fb7832fadf393db1bddef",
          "transactionIndex": "0x7a",
          "logIndex": "0x8c",
          "removed": false
        },
        {
          "address": "0x6b896b290b3c4be040db69af3e32d200688b8e8c",
          "topics": [
            "0x8d340f17e19058004c20453540862a9c62778504476f6756755cb33bcd6c38c2"
          ],
          "data": "0x0000000000000000000000000000000000000000000000005fbc02272fbf20b7000000000000000000000000000000000000000000000000000000000000010000000000000000000000000000000000000000000000000000000000000000000000000000000000000000000000000000000000000000000000000000000000000000000000000000000000000000000000000000000000000000000000000000000000000000000000000000000000000000000000000000000000000000000000000000000000000000000000000000000000000000000000000000000000000000000000000000000000000000000000000000000000000000000000000000000000000000000000000000000000000000000000000000000000000000200000000000000000000000005afb3d542bcca06bc89411b834f507f3660f5903",
          "blockHash": "0x031bd4d63be2d521a7bcf7eb0ae2b2c34b4c406c475134da3c4a0dba979a2d63",
          "blockNumber": "0x834e5b",
          "transactionHash": "0x47846832f4bb00057d7377b5f9f4fa7e5bc577f3b67fb7832fadf393db1bddef",
          "transactionIndex": "0x7a",
          "logIndex": "0x8d",
          "removed": false
        }
      ],
      "logsBloom": "0x00000000000000400000000000000000000000000000200000000000000000000000000000000000000000000000000000000000000000000004000000000004000000000000000000000000040000000000000000000000000000000000000000000000000000000000000000000040000000000000000000000000000000400000000000000000200000000000000000000000000000000000000000000000000000000000008004000000000000000000000000000000000000000000000000000000000000000000000000000000000000000000000000000000000000000000000000000000000000000000000000000000008000000100000000000000",
      "type": "0x2",
      "transactionHash": "0x47846832f4bb00057d7377b5f9f4fa7e5bc577f3b67fb7832fadf393db1bddef",
      "transactionIndex": "0x7a",
      "blockHash": "0x031bd4d63be2d521a7bcf7eb0ae2b2c34b4c406c475134da3c4a0dba979a2d63",
      "blockNumber": "0x834e5b",
      "gasUsed": "0x4ce0d",
      "effectiveGasPrice": "0x170627",
      "from": "0xf52205f70531e62f7199d3f3835fddcd86791294",
      "to": "0x6b896b290b3c4be040db69af3e32d200688b8e8c",
      "contractAddress": null
    }
  ],
  "libraries": [],
  "pending": [],
  "returns": {},
  "timestamp": 1750606058,
  "chain": 11155111,
  "commit": null
}