{
  "transactions": [
    {
      "hash": "0x0b8597fd6ad57d02ccb870c1f6c21b051fc837cb843b28dfeb9796c976735851",
      "transactionType": "CALL",
      "contractName": null,
      "contractAddress": "0xbdf8bb3ed3aaf8127cf57424c676074f5d5342c0",
      "function": "applyChainUpdates(uint64[],(uint64,bytes[],bytes,(bool,uint128,uint128),(bool,uint128,uint128))[])",
      "arguments": [
        "[]",
        "[(6898391096552792247, [0x0000000000000000000000006634f7db2a48281d7ba0962b53fe4bd155af2c7c], 0x0000000000000000000000002fb29a9c19a9106094e8df8282d5f239fe1005d6, (true, 100000, 167), (true, 100000, 167))]"
      ],
      "transaction": {
        "from": "0xf52205f70531e62f7199d3f3835fddcd86791294",
        "to": "0xbdf8bb3ed3aaf8127cf57424c676074f5d5342c0",
        "gas": "0x7eb7f",
        "value": "0x0",
        "input": "0xe8a1da17000000000000000000000000000000000000000000000000000000000000004000000000000000000000000000000000000000000000000000000000000000600000000000000000000000000000000000000000000000000000000000000000000000000000000000000000000000000000000000000000000000000000000100000000000000000000000000000000000000000000000000000000000000200000000000000000000000000000000000000000000000005fbc02272fbf20b7000000000000000000000000000000000000000000000000000000000000012000000000000000000000000000000000000000000000000000000000000001a0000000000000000000000000000000000000000000000000000000000000000100000000000000000000000000000000000000000000000000000000000186a000000000000000000000000000000000000000000000000000000000000000a7000000000000000000000000000000000000000000000000000000000000000100000000000000000000000000000000000000000000000000000000000186a000000000000000000000000000000000000000000000000000000000000000a70000000000000000000000000000000000000000000000000000000000000001000000000000000000000000000000000000000000000000000000000000002000000000000000000000000000000000000000000000000000000000000000200000000000000000000000006634f7db2a48281d7ba0962b53fe4bd155af2c7c00000000000000000000000000000000000000000000000000000000000000200000000000000000000000002fb29a9c19a9106094e8df8282d5f239fe1005d6",
        "nonce": "0x27",
        "chainId": "0xaa36a7"
      },
      "additionalContracts": [],
      "isFixedGasLimit": false
    }
  ],
  "receipts": [
    {
      "status": "0x1",
      "cumulativeGasUsed": "0x15dd7de",
      "logs": [
        {
          "address": "0xbdf8bb3ed3aaf8127cf57424c676074f5d5342c0",
          "topics": [
            "0x7d628c9a1796743d365ab521a8b2a4686e419b3269919dc9145ea2ce853b54ea",
            "0x0000000000000000000000000000000000000000000000005fbc02272fbf20b7"
          ],
          "data": "0x000000000000000000000000000000000000000000000000000000000000002000000000000000000000000000000000000000000000000000000000000000200000000000000000000000006634f7db2a48281d7ba0962b53fe4bd155af2c7c",
          "blockHash": "0x9fca01e3c1442c2c278519c673ac61b5abb5a9a2443997880e9309af64c5333f",
          "blockNumber": "0x833738",
          "blockTimestamp": "0x68570ae4",
          "transactionHash": "0x0b8597fd6ad57d02ccb870c1f6c21b051fc837cb843b28dfeb9796c976735851",
          "transactionIndex": "0xb8",
          "logIndex": "0xc6",
          "removed": false
        },
        {
          "address": "0xbdf8bb3ed3aaf8127cf57424c676074f5d5342c0",
          "topics": [
            "0x8d340f17e19058004c20453540862a9c62778504476f6756755cb33bcd6c38c2"
          ],
          "data": "0x0000000000000000000000000000000000000000000000005fbc02272fbf20b70000000000000000000000000000000000000000000000000000000000000100000000000000000000000000000000000000000000000000000000000000000100000000000000000000000000000000000000000000000000000000000186a000000000000000000000000000000000000000000000000000000000000000a7000000000000000000000000000000000000000000000000000000000000000100000000000000000000000000000000000000000000000000000000000186a000000000000000000000000000000000000000000000000000000000000000a700000000000000000000000000000000000000000000000000000000000000200000000000000000000000002fb29a9c19a9106094e8df8282d5f239fe1005d6",
          "blockHash": "0x9fca01e3c1442c2c278519c673ac61b5abb5a9a2443997880e9309af64c5333f",
          "blockNumber": "0x833738",
          "blockTimestamp": "0x68570ae4",
          "transactionHash": "0x0b8597fd6ad57d02ccb870c1f6c21b051fc837cb843b28dfeb9796c976735851",
          "transactionIndex": "0xb8",
          "logIndex": "0xc7",
          "removed": false
        }
      ],
      "logsBloom": "0x00000000000000400000000000000000400000000000000000000000000000000000000000000000000000000000000000000000000000000004000000000004000000000000000000000000040000000000000000000000000000000000000000000000000200000000000000000040000000000000000000000000000000400000000000000000000000000000000000000000000000000000000000000000000000000000008000000000000000000000000000000000000000000000000000000000000000000000000000000000000000000000000000000000000000000000000000000000000000000000000000000000008000000100008000000000",
      "type": "0x2",
      "transactionHash": "0x0b8597fd6ad57d02ccb870c1f6c21b051fc837cb843b28dfeb9796c976735851",
      "transactionIndex": "0xb8",
      "blockHash": "0x9fca01e3c1442c2c278519c673ac61b5abb5a9a2443997880e9309af64c5333f",
      "blockNumber": "0x833738",
      "gasUsed": "0x56a53",
      "effectiveGasPrice": "0xf647a",
      "from": "0xf52205f70531e62f7199d3f3835fddcd86791294",
      "to": "0xbdf8bb3ed3aaf8127cf57424c676074f5d5342c0",
      "contractAddress": null
    }
  ],
  "libraries": [],
  "pending": [],
  "returns": {},
  "timestamp": 1750534885,
  "chain": 11155111,
  "commit": null
}