{
  "transactions": [
    {
      "hash": "0x65ad9ce1d68cd9e09061c61461c01b15f2bff2151a05e279fe80d29c4e680438",
      "transactionType": "CALL",
      "contractName": null,
      "contractAddress": "0x2fe52115a2b9ee3b98820cc5052df94ad697fbf9",
      "function": "applyChainUpdates(uint64[],(uint64,bytes[],bytes,(bool,uint128,uint128),(bool,uint128,uint128))[])",
      "arguments": [
        "[]",
        "[(6898391096552792247, [0x0000000000000000000000004801aa1c2c179aba81f312c8aeb670fe32a1f28d], 0x0000000000000000000000004355a47e280852b11267da295fe25a3d8e1f9501, (false, 0, 0), (false, 0, 0))]"
      ],
      "transaction": {
        "from": "0xf52205f70531e62f7199d3f3835fddcd86791294",
        "to": "0x2fe52115a2b9ee3b98820cc5052df94ad697fbf9",
        "gas": "0x6a300",
        "value": "0x0",
        "input": "0xe8a1da17000000000000000000000000000000000000000000000000000000000000004000000000000000000000000000000000000000000000000000000000000000600000000000000000000000000000000000000000000000000000000000000000000000000000000000000000000000000000000000000000000000000000000100000000000000000000000000000000000000000000000000000000000000200000000000000000000000000000000000000000000000005fbc02272fbf20b7000000000000000000000000000000000000000000000000000000000000012000000000000000000000000000000000000000000000000000000000000001a00000000000000000000000000000000000000000000000000000000000000000000000000000000000000000000000000000000000000000000000000000000000000000000000000000000000000000000000000000000000000000000000000000000000000000000000000000000000000000000000000000000000000000000000000000000000000000000000000000000000000000000000000000000000000000000000000000000000000000000000000000000000000000000000000000000000000000000000000000000000000000000000000000000000000001000000000000000000000000000000000000000000000000000000000000002000000000000000000000000000000000000000000000000000000000000000200000000000000000000000004801aa1c2c179aba81f312c8aeb670fe32a1f28d00000000000000000000000000000000000000000000000000000000000000200000000000000000000000004355a47e280852b11267da295fe25a3d8e1f9501",
        "nonce": "0x9e",
        "chainId": "0xaa36a7"
      },
      "additionalContracts": [],
      "isFixedGasLimit": false
    }
  ],
  "receipts": [
    {
      "status": "0x1",
      "cumulativeGasUsed": "0x2588986",
      "logs": [
        {
          "address": "0x2fe52115a2b9ee3b98820cc5052df94ad697fbf9",
          "topics": [
            "0x7d628c9a1796743d365ab521a8b2a4686e419b3269919dc9145ea2ce853b54ea",
            "0x0000000000000000000000000000000000000000000000005fbc02272fbf20b7"
          ],
          "data": "0x000000000000000000000000000000000000000000000000000000000000002000000000000000000000000000000000000000000000000000000000000000200000000000000000000000004801aa1c2c179aba81f312c8aeb670fe32a1f28d",
          "blockHash": "0x44c8836f54d042fa98fcf6d977478e6c8d279cfc35031267ce44ff9ef3da1cd3",
          "blockNumber": "0x836b78",
          "transactionHash": "0x65ad9ce1d68cd9e09061c61461c01b15f2bff2151a05e279fe80d29c4e680438",
          "transactionIndex": "0x14b",
          "logIndex": "0x216",
          "removed": false
        },
        {
          "address": "0x2fe52115a2b9ee3b98820cc5052df94ad697fbf9",
          "topics": [
            "0x8d340f17e19058004c20453540862a9c62778504476f6756755cb33bcd6c38c2"
          ],
          "data": "0x0000000000000000000000000000000000000000000000005fbc02272fbf20b7000000000000000000000000000000000000000000000000000000000000010000000000000000000000000000000000000000000000000000000000000000000000000000000000000000000000000000000000000000000000000000000000000000000000000000000000000000000000000000000000000000000000000000000000000000000000000000000000000000000000000000000000000000000000000000000000000000000000000000000000000000000000000000000000000000000000000000000000000000000000000000000000000000000000000000000000000000000000000000000000000000000000000000000000000000200000000000000000000000004355a47e280852b11267da295fe25a3d8e1f9501",
          "blockHash": "0x44c8836f54d042fa98fcf6d977478e6c8d279cfc35031267ce44ff9ef3da1cd3",
          "blockNumber": "0x836b78",
          "transactionHash": "0x65ad9ce1d68cd9e09061c61461c01b15f2bff2151a05e279fe80d29c4e680438",
          "transactionIndex": "0x14b",
          "logIndex": "0x217",
          "removed": false
        }
      ],
      "logsBloom": "0x00000000000000400000000000000000002000000000000000000000000000000000000000000000000000000000000000000000000000000004000000000004000000000000000000000000040000000000000000000000000000000000000000000000000000000000000000000040000000000000000000000000000000400000000000000000000000000000000000000000000000000000000000000000000000000000008000000000000000800000000000000000000000000000000000000020000000000000000000000000000000000000000000000000000000000000000000000000000000000000000000000000008000000100000000000000",
      "type": "0x2",
      "transactionHash": "0x65ad9ce1d68cd9e09061c61461c01b15f2bff2151a05e279fe80d29c4e680438",
      "transactionIndex": "0x14b",
      "blockHash": "0x44c8836f54d042fa98fcf6d977478e6c8d279cfc35031267ce44ff9ef3da1cd3",
      "blockNumber": "0x836b78",
      "gasUsed": "0x4ce0d",
      "effectiveGasPrice": "0x195d37f4",
      "from": "0xf52205f70531e62f7199d3f3835fddcd86791294",
      "to": "0x2fe52115a2b9ee3b98820cc5052df94ad697fbf9",
      "contractAddress": null
    }
  ],
  "libraries": [],
  "pending": [],
  "returns": {},
  "timestamp": 1750695591,
  "chain": 11155111,
  "commit": null
}