{
  "transactions": [
    {
      "hash": "0x941fbc6a3bc557d30e0d6eb2611bbdddb7baaa31a904443a1d3b7062994ad507",
      "transactionType": "CALL",
      "contractName": null,
      "contractAddress": "0xcb9c76076c12af157d10af5e751f437007ffcb9a",
      "function": "applyChainUpdates(uint64[],(uint64,bytes[],bytes,(bool,uint128,uint128),(bool,uint128,uint128))[])",
      "arguments": [
        "[]",
        "[(6898391096552792247, [0x0000000000000000000000005c03ebc5ab626caa1e851774d196ac112397118d], 0x00000000000000000000000080c6dee352cb47342d70152510d6d04961f5804e, (false, 0, 0), (false, 0, 0))]"
      ],
      "transaction": {
        "from": "0xf52205f70531e62f7199d3f3835fddcd86791294",
        "to": "0xcb9c76076c12af157d10af5e751f437007ffcb9a",
        "gas": "0x6a300",
        "value": "0x0",
        "input": "0xe8a1da17000000000000000000000000000000000000000000000000000000000000004000000000000000000000000000000000000000000000000000000000000000600000000000000000000000000000000000000000000000000000000000000000000000000000000000000000000000000000000000000000000000000000000100000000000000000000000000000000000000000000000000000000000000200000000000000000000000000000000000000000000000005fbc02272fbf20b7000000000000000000000000000000000000000000000000000000000000012000000000000000000000000000000000000000000000000000000000000001a00000000000000000000000000000000000000000000000000000000000000000000000000000000000000000000000000000000000000000000000000000000000000000000000000000000000000000000000000000000000000000000000000000000000000000000000000000000000000000000000000000000000000000000000000000000000000000000000000000000000000000000000000000000000000000000000000000000000000000000000000000000000000000000000000000000000000000000000000000000000000000000000000000000000000001000000000000000000000000000000000000000000000000000000000000002000000000000000000000000000000000000000000000000000000000000000200000000000000000000000005c03ebc5ab626caa1e851774d196ac112397118d000000000000000000000000000000000000000000000000000000000000002000000000000000000000000080c6dee352cb47342d70152510d6d04961f5804e",
        "nonce": "0x50",
        "chainId": "0xaa36a7"
      },
      "additionalContracts": [],
      "isFixedGasLimit": false
    }
  ],
  "receipts": [
    {
      "status": "0x1",
      "cumulativeGasUsed": "0x1eff1c0",
      "logs": [
        {
          "address": "0xcb9c76076c12af157d10af5e751f437007ffcb9a",
          "topics": [
            "0x7d628c9a1796743d365ab521a8b2a4686e419b3269919dc9145ea2ce853b54ea",
            "0x0000000000000000000000000000000000000000000000005fbc02272fbf20b7"
          ],
          "data": "0x000000000000000000000000000000000000000000000000000000000000002000000000000000000000000000000000000000000000000000000000000000200000000000000000000000005c03ebc5ab626caa1e851774d196ac112397118d",
          "blockHash": "0x7b237358c3c62b9e076099ac36822e422b614cf19a1fa924acdd5554787ad363",
          "blockNumber": "0x834da2",
          "transactionHash": "0x941fbc6a3bc557d30e0d6eb2611bbdddb7baaa31a904443a1d3b7062994ad507",
          "transactionIndex": "0x7d",
          "logIndex": "0x8e",
          "removed": false
        },
        {
          "address": "0xcb9c76076c12af157d10af5e751f437007ffcb9a",
          "topics": [
            "0x8d340f17e19058004c20453540862a9c62778504476f6756755cb33bcd6c38c2"
          ],
          "data": "0x0000000000000000000000000000000000000000000000005fbc02272fbf20b70000000000000000000000000000000000000000000000000000000000000100000000000000000000000000000000000000000000000000000000000000000000000000000000000000000000000000000000000000000000000000000000000000000000000000000000000000000000000000000000000000000000000000000000000000000000000000000000000000000000000000000000000000000000000000000000000000000000000000000000000000000000000000000000000000000000000000000000000000000000000000000000000000000000000000000000000000000000000000000000000000000000000000000000000000002000000000000000000000000080c6dee352cb47342d70152510d6d04961f5804e",
          "blockHash": "0x7b237358c3c62b9e076099ac36822e422b614cf19a1fa924acdd5554787ad363",
          "blockNumber": "0x834da2",
          "transactionHash": "0x941fbc6a3bc557d30e0d6eb2611bbdddb7baaa31a904443a1d3b7062994ad507",
          "transactionIndex": "0x7d",
          "logIndex": "0x8f",
          "removed": false
        }
      ],
      "logsBloom": "0x00000000000000400000000000000000000000000000000000000000000000000000000000000000000000000000000000000000000000000004000000000004000000000000000000000000040000000000000000000000000000000000000000000001000000000000002000000040800000000000000000000000000000400000000000000000000000000000000000000000000000000000000000000000000000000000008000000000000000000000000000000000000000000000000000000000000000000000000000000000000000000000000000000000000000000000000000000000000000000000000000000000008000000100000000000000",
      "type": "0x2",
      "transactionHash": "0x941fbc6a3bc557d30e0d6eb2611bbdddb7baaa31a904443a1d3b7062994ad507",
      "transactionIndex": "0x7d",
      "blockHash": "0x7b237358c3c62b9e076099ac36822e422b614cf19a1fa924acdd5554787ad363",
      "blockNumber": "0x834da2",
      "gasUsed": "0x4ce0d",
      "effectiveGasPrice": "0x1201d7",
      "from": "0xf52205f70531e62f7199d3f3835fddcd86791294",
      "to": "0xcb9c76076c12af157d10af5e751f437007ffcb9a",
      "contractAddress": null
    }
  ],
  "libraries": [],
  "pending": [],
  "returns": {},
  "timestamp": 1750603837,
  "chain": 11155111,
  "commit": null
}