{
  "transactions": [
    {
      "hash": "0x51295fff081b2235f0b1f8b17138e178d861bf3396e9643988fd40bcd76a569b",
      "transactionType": "CALL",
      "contractName": null,
      "contractAddress": "0xfd37134b3b0866573d900c2e4c3f2f3fbb80677a",
      "function": "applyChainUpdates(uint64[],(uint64,bytes[],bytes,(bool,uint128,uint128),(bool,uint128,uint128))[])",
      "arguments": [
        "[]",
        "[(6898391096552792247, [0x000000000000000000000000d3f2131a75fb2d096e9e75c560966c85b6b9a302], 0x0000000000000000000000006a6b3986ddf8ce0086d7a321b8fe80c65878c4a8, (false, 0, 0), (false, 0, 0))]"
      ],
      "transaction": {
        "from": "0xf52205f70531e62f7199d3f3835fddcd86791294",
        "to": "0xfd37134b3b0866573d900c2e4c3f2f3fbb80677a",
        "gas": "0x706e1",
        "value": "0x0",
        "input": "0xe8a1da17000000000000000000000000000000000000000000000000000000000000004000000000000000000000000000000000000000000000000000000000000000600000000000000000000000000000000000000000000000000000000000000000000000000000000000000000000000000000000000000000000000000000000100000000000000000000000000000000000000000000000000000000000000200000000000000000000000000000000000000000000000005fbc02272fbf20b7000000000000000000000000000000000000000000000000000000000000012000000000000000000000000000000000000000000000000000000000000001a0000000000000000000000000000000000000000000000000000000000000000000000000000000000000000000000000000000000000000000000000000000000000000000000000000000000000000000000000000000000000000000000000000000000000000000000000000000000000000000000000000000000000000000000000000000000000000000000000000000000000000000000000000000000000000000000000000000000000000000000000000000000000000000000000000000000000000000000000000000000000000000000000000000000000000100000000000000000000000000000000000000000000000000000000000000200000000000000000000000000000000000000000000000000000000000000020000000000000000000000000d3f2131a75fb2d096e9e75c560966c85b6b9a30200000000000000000000000000000000000000000000000000000000000000200000000000000000000000006a6b3986ddf8ce0086d7a321b8fe80c65878c4a8",
        "nonce": "0x7f",
        "chainId": "0xaa36a7"
      },
      "additionalContracts": [],
      "isFixedGasLimit": false
    }
  ],
  "receipts": [
    {
      "status": "0x1",
      "cumulativeGasUsed": "0x10a49b1",
      "logs": [
        {
          "address": "0xfd37134b3b0866573d900c2e4c3f2f3fbb80677a",
          "topics": [
            "0x7d628c9a1796743d365ab521a8b2a4686e419b3269919dc9145ea2ce853b54ea",
            "0x0000000000000000000000000000000000000000000000005fbc02272fbf20b7"
          ],
          "data": "0x00000000000000000000000000000000000000000000000000000000000000200000000000000000000000000000000000000000000000000000000000000020000000000000000000000000d3f2131a75fb2d096e9e75c560966c85b6b9a302",
          "blockHash": "0x3f3bed3e658d7d9895b20bccf23a781d6aeaecef731818941be7208ec161ab32",
          "blockNumber": "0x835ce5",
          "transactionHash": "0x51295fff081b2235f0b1f8b17138e178d861bf3396e9643988fd40bcd76a569b",
          "transactionIndex": "0xa1",
          "logIndex": "0x7a",
          "removed": false
        },
        {
          "address": "0xfd37134b3b0866573d900c2e4c3f2f3fbb80677a",
          "topics": [
            "0x8d340f17e19058004c20453540862a9c62778504476f6756755cb33bcd6c38c2"
          ],
          "data": "0x0000000000000000000000000000000000000000000000005fbc02272fbf20b7000000000000000000000000000000000000000000000000000000000000010000000000000000000000000000000000000000000000000000000000000000000000000000000000000000000000000000000000000000000000000000000000000000000000000000000000000000000000000000000000000000000000000000000000000000000000000000000000000000000000000000000000000000000000000000000000000000000000000000000000000000000000000000000000000000000000000000000000000000000000000000000000000000000000000000000000000000000000000000000000000000000000000000000000000000200000000000000000000000006a6b3986ddf8ce0086d7a321b8fe80c65878c4a8",
          "blockHash": "0x3f3bed3e658d7d9895b20bccf23a781d6aeaecef731818941be7208ec161ab32",
          "blockNumber": "0x835ce5",
          "transactionHash": "0x51295fff081b2235f0b1f8b17138e178d861bf3396e9643988fd40bcd76a569b",
          "transactionIndex": "0xa1",
          "logIndex": "0x7b",
          "removed": false
        }
      ],
      "logsBloom": "0x00000000000000400000000800000000000000000000000000000000000000000000000000000004000000000000000000000000000000000004000000000004000000000000000000000000040000000000000000000000000000000000000000000000000000000000000000000040000000000000000000000000000000400000000000000000000000000000000000000000000000000000000000000000000000000001008000000000000000000000000000000000000000000000000000000000000000000000000000000000000000000000000000000000000000000000000000000000000000000000000000000000008000000100000000000000",
      "type": "0x2",
      "transactionHash": "0x51295fff081b2235f0b1f8b17138e178d861bf3396e9643988fd40bcd76a569b",
      "transactionIndex": "0xa1",
      "blockHash": "0x3f3bed3e658d7d9895b20bccf23a781d6aeaecef731818941be7208ec161ab32",
      "blockNumber": "0x835ce5",
      "gasUsed": "0x4ce01",
      "effectiveGasPrice": "0xf427d",
      "from": "0xf52205f70531e62f7199d3f3835fddcd86791294",
      "to": "0xfd37134b3b0866573d900c2e4c3f2f3fbb80677a",
      "contractAddress": null
    }
  ],
  "libraries": [],
  "pending": [],
  "returns": {},
  "timestamp": 1750650769,
  "chain": 11155111,
  "commit": null
}