{
  "transactions": [
    {
      "hash": "0x2f5d138619d1ee1c49b3d357f23b0f51f772c864ba9e0c5720b8a2bd797b31b6",
      "transactionType": "CALL",
      "contractName": null,
      "contractAddress": "0x18a0d67484ea3aa0e7e070dff4b941bd71c9c276",
      "function": "applyChainUpdates(uint64[],(uint64,bytes[],bytes,(bool,uint128,uint128),(bool,uint128,uint128))[])",
      "arguments": [
        "[]",
        "[(6898391096552792247, [0x000000000000000000000000780ce9441dd46dd8608174d5d54c52325592dae0], 0x000000000000000000000000b362bc44aa2668e32e3108715faf2f8e3ac0450d, (false, 0, 0), (false, 0, 0))]"
      ],
      "transaction": {
        "from": "0xf52205f70531e62f7199d3f3835fddcd86791294",
        "to": "0x18a0d67484ea3aa0e7e070dff4b941bd71c9c276",
        "gas": "0x6a300",
        "value": "0x0",
        "input": "0xe8a1da17000000000000000000000000000000000000000000000000000000000000004000000000000000000000000000000000000000000000000000000000000000600000000000000000000000000000000000000000000000000000000000000000000000000000000000000000000000000000000000000000000000000000000100000000000000000000000000000000000000000000000000000000000000200000000000000000000000000000000000000000000000005fbc02272fbf20b7000000000000000000000000000000000000000000000000000000000000012000000000000000000000000000000000000000000000000000000000000001a0000000000000000000000000000000000000000000000000000000000000000000000000000000000000000000000000000000000000000000000000000000000000000000000000000000000000000000000000000000000000000000000000000000000000000000000000000000000000000000000000000000000000000000000000000000000000000000000000000000000000000000000000000000000000000000000000000000000000000000000000000000000000000000000000000000000000000000000000000000000000000000000000000000000000000100000000000000000000000000000000000000000000000000000000000000200000000000000000000000000000000000000000000000000000000000000020000000000000000000000000780ce9441dd46dd8608174d5d54c52325592dae00000000000000000000000000000000000000000000000000000000000000020000000000000000000000000b362bc44aa2668e32e3108715faf2f8e3ac0450d",
        "nonce": "0xb2",
        "chainId": "0xaa36a7"
      },
      "additionalContracts": [],
      "isFixedGasLimit": false
    }
  ],
  "receipts": [
    {
      "status": "0x1",
      "cumulativeGasUsed": "0x1bb2720",
      "logs": [
        {
          "address": "0x18a0d67484ea3aa0e7e070dff4b941bd71c9c276",
          "topics": [
            "0x7d628c9a1796743d365ab521a8b2a4686e419b3269919dc9145ea2ce853b54ea",
            "0x0000000000000000000000000000000000000000000000005fbc02272fbf20b7"
          ],
          "data": "0x00000000000000000000000000000000000000000000000000000000000000200000000000000000000000000000000000000000000000000000000000000020000000000000000000000000780ce9441dd46dd8608174d5d54c52325592dae0",
          "blockHash": "0x7829800692d38650c4817a39c9109766262c75c3adfb06d7eb89b4fbcf8c1e63",
          "blockNumber": "0x8373b5",
          "transactionHash": "0x2f5d138619d1ee1c49b3d357f23b0f51f772c864ba9e0c5720b8a2bd797b31b6",
          "transactionIndex": "0xea",
          "logIndex": "0x18a",
          "removed": false
        },
        {
          "address": "0x18a0d67484ea3aa0e7e070dff4b941bd71c9c276",
          "topics": [
            "0x8d340f17e19058004c20453540862a9c62778504476f6756755cb33bcd6c38c2"
          ],
          "data": "0x0000000000000000000000000000000000000000000000005fbc02272fbf20b700000000000000000000000000000000000000000000000000000000000001000000000000000000000000000000000000000000000000000000000000000000000000000000000000000000000000000000000000000000000000000000000000000000000000000000000000000000000000000000000000000000000000000000000000000000000000000000000000000000000000000000000000000000000000000000000000000000000000000000000000000000000000000000000000000000000000000000000000000000000000000000000000000000000000000000000000000000000000000000000000000000000000000000000000000020000000000000000000000000b362bc44aa2668e32e3108715faf2f8e3ac0450d",
          "blockHash": "0x7829800692d38650c4817a39c9109766262c75c3adfb06d7eb89b4fbcf8c1e63",
          "blockNumber": "0x8373b5",
          "transactionHash": "0x2f5d138619d1ee1c49b3d357f23b0f51f772c864ba9e0c5720b8a2bd797b31b6",
          "transactionIndex": "0xea",
          "logIndex": "0x18b",
          "removed": false
        }
      ],
      "logsBloom": "0x00000000000000400000000000000000000000000000000000000000000000000000000000000000000000000000000000000000000000000004000000000004000000000000000000000000040000000000000000000000000000000000000000000000000000000000000000000050000000000000000000000000000000400000000000000000000000000000000000000000000040000000000000000000000000000000008000000000000000000000000000000000000000000000000000000000000000000000000000000000000000000000000000000000000000000000000000000000000000000000000000000000008000200100000000000000",
      "type": "0x2",
      "transactionHash": "0x2f5d138619d1ee1c49b3d357f23b0f51f772c864ba9e0c5720b8a2bd797b31b6",
      "transactionIndex": "0xea",
      "blockHash": "0x7829800692d38650c4817a39c9109766262c75c3adfb06d7eb89b4fbcf8c1e63",
      "blockNumber": "0x8373b5",
      "gasUsed": "0x4ce0d",
      "effectiveGasPrice": "0xf7ec3",
      "from": "0xf52205f70531e62f7199d3f3835fddcd86791294",
      "to": "0x18a0d67484ea3aa0e7e070dff4b941bd71c9c276",
      "contractAddress": null
    }
  ],
  "libraries": [],
  "pending": [],
  "returns": {},
  "timestamp": 1750720922,
  "chain": 11155111,
  "commit": null
}