{
  "transactions": [
    {
      "hash": "0xad03c0190674875cadf543369e187885eba848fb09826b4acfaee077f194c0e4",
      "transactionType": "CALL",
      "contractName": null,
      "contractAddress": "0x2dc06815a8269e9f76e09bfc6e1804bf89687a10",
      "function": "applyChainUpdates(uint64[],(uint64,bytes[],bytes,(bool,uint128,uint128),(bool,uint128,uint128))[])",
      "arguments": [
        "[]",
        "[(6898391096552792247, [0x000000000000000000000000e2e812b571374763c12f6ff1fc52902d914af6f7], 0x00000000000000000000000045044fa6ec8a94fdfa593053684de9f2a29d7153, (false, 0, 0), (false, 0, 0))]"
      ],
      "transaction": {
        "from": "0xf52205f70531e62f7199d3f3835fddcd86791294",
        "to": "0x2dc06815a8269e9f76e09bfc6e1804bf89687a10",
        "gas": "0x6a300",
        "value": "0x0",
        "input": "0xe8a1da17000000000000000000000000000000000000000000000000000000000000004000000000000000000000000000000000000000000000000000000000000000600000000000000000000000000000000000000000000000000000000000000000000000000000000000000000000000000000000000000000000000000000000100000000000000000000000000000000000000000000000000000000000000200000000000000000000000000000000000000000000000005fbc02272fbf20b7000000000000000000000000000000000000000000000000000000000000012000000000000000000000000000000000000000000000000000000000000001a0000000000000000000000000000000000000000000000000000000000000000000000000000000000000000000000000000000000000000000000000000000000000000000000000000000000000000000000000000000000000000000000000000000000000000000000000000000000000000000000000000000000000000000000000000000000000000000000000000000000000000000000000000000000000000000000000000000000000000000000000000000000000000000000000000000000000000000000000000000000000000000000000000000000000000100000000000000000000000000000000000000000000000000000000000000200000000000000000000000000000000000000000000000000000000000000020000000000000000000000000e2e812b571374763c12f6ff1fc52902d914af6f7000000000000000000000000000000000000000000000000000000000000002000000000000000000000000045044fa6ec8a94fdfa593053684de9f2a29d7153",
        "nonce": "0x39",
        "chainId": "0xaa36a7"
      },
      "additionalContracts": [],
      "isFixedGasLimit": false
    }
  ],
  "receipts": [
    {
      "status": "0x1",
      "cumulativeGasUsed": "0xabab7d",
      "logs": [
        {
          "address": "0x2dc06815a8269e9f76e09bfc6e1804bf89687a10",
          "topics": [
            "0x7d628c9a1796743d365ab521a8b2a4686e419b3269919dc9145ea2ce853b54ea",
            "0x0000000000000000000000000000000000000000000000005fbc02272fbf20b7"
          ],
          "data": "0x00000000000000000000000000000000000000000000000000000000000000200000000000000000000000000000000000000000000000000000000000000020000000000000000000000000e2e812b571374763c12f6ff1fc52902d914af6f7",
          "blockHash": "0xba381df6c008e77df4abeee143a6ab171e7f7157fb186d648afb8adaed895e24",
          "blockNumber": "0x833fb7",
          "transactionHash": "0xad03c0190674875cadf543369e187885eba848fb09826b4acfaee077f194c0e4",
          "transactionIndex": "0xaf",
          "logIndex": "0x66",
          "removed": false
        },
        {
          "address": "0x2dc06815a8269e9f76e09bfc6e1804bf89687a10",
          "topics": [
            "0x8d340f17e19058004c20453540862a9c62778504476f6756755cb33bcd6c38c2"
          ],
          "data": "0x0000000000000000000000000000000000000000000000005fbc02272fbf20b70000000000000000000000000000000000000000000000000000000000000100000000000000000000000000000000000000000000000000000000000000000000000000000000000000000000000000000000000000000000000000000000000000000000000000000000000000000000000000000000000000000000000000000000000000000000000000000000000000000000000000000000000000000000000000000000000000000000000000000000000000000000000000000000000000000000000000000000000000000000000000000000000000000000000000000000000000000000000000000000000000000000000000000000000000002000000000000000000000000045044fa6ec8a94fdfa593053684de9f2a29d7153",
          "blockHash": "0xba381df6c008e77df4abeee143a6ab171e7f7157fb186d648afb8adaed895e24",
          "blockNumber": "0x833fb7",
          "transactionHash": "0xad03c0190674875cadf543369e187885eba848fb09826b4acfaee077f194c0e4",
          "transactionIndex": "0xaf",
          "logIndex": "0x67",
          "removed": false
        }
      ],
      "logsBloom": "0x00000000000000400000000000000000000000000000000000000000000000000000000000000000000000000000000000000000000000000004000000000004000000000000000000000000040000000000000000000000000000000000000000000000000000000000000000000040000000000000000000000000000000400000000000000000000000000000000000000000000000000000000000000000000000000000008000080000000000000000000008000000000000000000000000000000000000000000000000000000000000000000000000000000000000020000000000000000000000000000000000000000008000000100000000000000",
      "type": "0x2",
      "transactionHash": "0xad03c0190674875cadf543369e187885eba848fb09826b4acfaee077f194c0e4",
      "transactionIndex": "0xaf",
      "blockHash": "0xba381df6c008e77df4abeee143a6ab171e7f7157fb186d648afb8adaed895e24",
      "blockNumber": "0x833fb7",
      "gasUsed": "0x4ce0d",
      "effectiveGasPrice": "0x7a37b",
      "from": "0xf52205f70531e62f7199d3f3835fddcd86791294",
      "to": "0x2dc06815a8269e9f76e09bfc6e1804bf89687a10",
      "contractAddress": null
    }
  ],
  "libraries": [],
  "pending": [],
  "returns": {},
  "timestamp": 1750561009,
  "chain": 11155111,
  "commit": null
}