{
  "transactions": [
    {
      "hash": "0x9410cc5185fe438015106bcabaf16ca2648f4f29d44d68007387af8414c05422",
      "transactionType": "CALL",
      "contractName": null,
      "contractAddress": "0xd6934cbda7cd583632f304ebfebb4b25fd98e640",
      "function": "applyChainUpdates(uint64[],(uint64,bytes[],bytes,(bool,uint128,uint128),(bool,uint128,uint128))[])",
      "arguments": [
        "[]",
        "[(6898391096552792247, [0x0000000000000000000000006e169c2b2e997b615fd4ec22955873f5f6730962], 0x000000000000000000000000654a09da4260141e8035653c5da625293a3411af, (false, 0, 0), (false, 0, 0))]"
      ],
      "transaction": {
        "from": "0xf52205f70531e62f7199d3f3835fddcd86791294",
        "to": "0xd6934cbda7cd583632f304ebfebb4b25fd98e640",
        "gas": "0x6a300",
        "value": "0x0",
        "input": "0xe8a1da17000000000000000000000000000000000000000000000000000000000000004000000000000000000000000000000000000000000000000000000000000000600000000000000000000000000000000000000000000000000000000000000000000000000000000000000000000000000000000000000000000000000000000100000000000000000000000000000000000000000000000000000000000000200000000000000000000000000000000000000000000000005fbc02272fbf20b7000000000000000000000000000000000000000000000000000000000000012000000000000000000000000000000000000000000000000000000000000001a00000000000000000000000000000000000000000000000000000000000000000000000000000000000000000000000000000000000000000000000000000000000000000000000000000000000000000000000000000000000000000000000000000000000000000000000000000000000000000000000000000000000000000000000000000000000000000000000000000000000000000000000000000000000000000000000000000000000000000000000000000000000000000000000000000000000000000000000000000000000000000000000000000000000000001000000000000000000000000000000000000000000000000000000000000002000000000000000000000000000000000000000000000000000000000000000200000000000000000000000006e169c2b2e997b615fd4ec22955873f5f67309620000000000000000000000000000000000000000000000000000000000000020000000000000000000000000654a09da4260141e8035653c5da625293a3411af",
        "nonce": "0x94",
        "chainId": "0xaa36a7"
      },
      "additionalContracts": [],
      "isFixedGasLimit": false
    }
  ],
  "receipts": [
    {
      "status": "0x1",
      "cumulativeGasUsed": "0x236d538",
      "logs": [
        {
          "address": "0xd6934cbda7cd583632f304ebfebb4b25fd98e640",
          "topics": [
            "0x7d628c9a1796743d365ab521a8b2a4686e419b3269919dc9145ea2ce853b54ea",
            "0x0000000000000000000000000000000000000000000000005fbc02272fbf20b7"
          ],
          "data": "0x000000000000000000000000000000000000000000000000000000000000002000000000000000000000000000000000000000000000000000000000000000200000000000000000000000006e169c2b2e997b615fd4ec22955873f5f6730962",
          "blockHash": "0x78f2ec8d964f2b8780bca5ae652740ed371e532c492b183aef22132b15fc2d0f",
          "blockNumber": "0x836afb",
          "transactionHash": "0x9410cc5185fe438015106bcabaf16ca2648f4f29d44d68007387af8414c05422",
          "transactionIndex": "0xf0",
          "logIndex": "0x176",
          "removed": false
        },
        {
          "address": "0xd6934cbda7cd583632f304ebfebb4b25fd98e640",
          "topics": [
            "0x8d340f17e19058004c20453540862a9c62778504476f6756755cb33bcd6c38c2"
          ],
          "data": "0x0000000000000000000000000000000000000000000000005fbc02272fbf20b700000000000000000000000000000000000000000000000000000000000001000000000000000000000000000000000000000000000000000000000000000000000000000000000000000000000000000000000000000000000000000000000000000000000000000000000000000000000000000000000000000000000000000000000000000000000000000000000000000000000000000000000000000000000000000000000000000000000000000000000000000000000000000000000000000000000000000000000000000000000000000000000000000000000000000000000000000000000000000000000000000000000000000000000000000020000000000000000000000000654a09da4260141e8035653c5da625293a3411af",
          "blockHash": "0x78f2ec8d964f2b8780bca5ae652740ed371e532c492b183aef22132b15fc2d0f",
          "blockNumber": "0x836afb",
          "transactionHash": "0x9410cc5185fe438015106bcabaf16ca2648f4f29d44d68007387af8414c05422",
          "transactionIndex": "0xf0",
          "logIndex": "0x177",
          "removed": false
        }
      ],
      "logsBloom": "0x00000000000000400000000000000000000000000000000000000000000000000000000000000000000000000000000000000020000000000004000000000204000000000000000000000000040000008000000000000000000000000000000000000000000000000000000000000040000000000000000000000000000000400000000000000000000000000000000000000000000000000000000000000000000000000000008000000000000000000000000000000000000000000000000000000000000000000000000000000000000000000000000000000000000000000000000000000000000000000000000000000000008000000100000000000000",
      "type": "0x2",
      "transactionHash": "0x9410cc5185fe438015106bcabaf16ca2648f4f29d44d68007387af8414c05422",
      "transactionIndex": "0xf0",
      "blockHash": "0x78f2ec8d964f2b8780bca5ae652740ed371e532c492b183aef22132b15fc2d0f",
      "blockNumber": "0x836afb",
      "gasUsed": "0x4ce0d",
      "effectiveGasPrice": "0x2695f628",
      "from": "0xf52205f70531e62f7199d3f3835fddcd86791294",
      "to": "0xd6934cbda7cd583632f304ebfebb4b25fd98e640",
      "contractAddress": null
    }
  ],
  "libraries": [],
  "pending": [],
  "returns": {},
  "timestamp": 1750694091,
  "chain": 11155111,
  "commit": null
}