{
  "transactions": [
    {
      "hash": "0x64dd5d541745a659c1b9f7e8037aaf027f6295f54a2140ef463a0b2e6537cef7",
      "transactionType": "CALL",
      "contractName": null,
      "contractAddress": "0x17578d954ec333f98993a6a179a5e6f84e8c9872",
      "function": "applyChainUpdates(uint64[],(uint64,bytes[],bytes,(bool,uint128,uint128),(bool,uint128,uint128))[])",
      "arguments": [
        "[]",
        "[(6898391096552792247, [0x00000000000000000000000067a33a17022ff37fa37d5770e1cc0a398b169ffb], 0x000000000000000000000000835fcd9251013bc040c49c6bd2311aa8d7bc5238, (false, 0, 0), (false, 0, 0))]"
      ],
      "transaction": {
        "from": "0xf52205f70531e62f7199d3f3835fddcd86791294",
        "to": "0x17578d954ec333f98993a6a179a5e6f84e8c9872",
        "gas": "0x6a300",
        "value": "0x0",
        "input": "0xe8a1da17000000000000000000000000000000000000000000000000000000000000004000000000000000000000000000000000000000000000000000000000000000600000000000000000000000000000000000000000000000000000000000000000000000000000000000000000000000000000000000000000000000000000000100000000000000000000000000000000000000000000000000000000000000200000000000000000000000000000000000000000000000005fbc02272fbf20b7000000000000000000000000000000000000000000000000000000000000012000000000000000000000000000000000000000000000000000000000000001a000000000000000000000000000000000000000000000000000000000000000000000000000000000000000000000000000000000000000000000000000000000000000000000000000000000000000000000000000000000000000000000000000000000000000000000000000000000000000000000000000000000000000000000000000000000000000000000000000000000000000000000000000000000000000000000000000000000000000000000000000000000000000000000000000000000000000000000000000000000000000000000000000000000000000010000000000000000000000000000000000000000000000000000000000000020000000000000000000000000000000000000000000000000000000000000002000000000000000000000000067a33a17022ff37fa37d5770e1cc0a398b169ffb0000000000000000000000000000000000000000000000000000000000000020000000000000000000000000835fcd9251013bc040c49c6bd2311aa8d7bc5238",
        "nonce": "0x32",
        "chainId": "0xaa36a7"
      },
      "additionalContracts": [],
      "isFixedGasLimit": false
    }
  ],
  "receipts": [
    {
      "status": "0x1",
      "cumulativeGasUsed": "0xc6fdef",
      "logs": [
        {
          "address": "0x17578d954ec333f98993a6a179a5e6f84e8c9872",
          "topics": [
            "0x7d628c9a1796743d365ab521a8b2a4686e419b3269919dc9145ea2ce853b54ea",
            "0x0000000000000000000000000000000000000000000000005fbc02272fbf20b7"
          ],
          "data": "0x0000000000000000000000000000000000000000000000000000000000000020000000000000000000000000000000000000000000000000000000000000002000000000000000000000000067a33a17022ff37fa37d5770e1cc0a398b169ffb",
          "blockHash": "0x5e48e7e43d873b3ed4bce5710df9ea577abc4e9af54165f76c208c87c784acc7",
          "blockNumber": "0x833a6b",
          "blockTimestamp": "0x68573148",
          "transactionHash": "0x64dd5d541745a659c1b9f7e8037aaf027f6295f54a2140ef463a0b2e6537cef7",
          "transactionIndex": "0xa1",
          "logIndex": "0x8c",
          "removed": false
        },
        {
          "address": "0x17578d954ec333f98993a6a179a5e6f84e8c9872",
          "topics": [
            "0x8d340f17e19058004c20453540862a9c62778504476f6756755cb33bcd6c38c2"
          ],
          "data": "0x0000000000000000000000000000000000000000000000005fbc02272fbf20b700000000000000000000000000000000000000000000000000000000000001000000000000000000000000000000000000000000000000000000000000000000000000000000000000000000000000000000000000000000000000000000000000000000000000000000000000000000000000000000000000000000000000000000000000000000000000000000000000000000000000000000000000000000000000000000000000000000000000000000000000000000000000000000000000000000000000000000000000000000000000000000000000000000000000000000000000000000000000000000000000000000000000000000000000000020000000000000000000000000835fcd9251013bc040c49c6bd2311aa8d7bc5238",
          "blockHash": "0x5e48e7e43d873b3ed4bce5710df9ea577abc4e9af54165f76c208c87c784acc7",
          "blockNumber": "0x833a6b",
          "blockTimestamp": "0x68573148",
          "transactionHash": "0x64dd5d541745a659c1b9f7e8037aaf027f6295f54a2140ef463a0b2e6537cef7",
          "transactionIndex": "0xa1",
          "logIndex": "0x8d",
          "removed": false
        }
      ],
      "logsBloom": "0x00000000000000400000000000000000000000000000000000000000000000000000000000000000000000000000000000000000000000000004000000000004000000000000000000000000040000200000000000000000000000000000000000000000000000000000000000000040000000000000000000000000000000400000000000000000000000000000000004000000000000000000000000000000000000000000008000000000000000000000000000000000000000008000000000000000000000000000000000000000000000000000000000000000000000000000000000000000000000000000000000000000008000000100000000000000",
      "type": "0x2",
      "transactionHash": "0x64dd5d541745a659c1b9f7e8037aaf027f6295f54a2140ef463a0b2e6537cef7",
      "transactionIndex": "0xa1",
      "blockHash": "0x5e48e7e43d873b3ed4bce5710df9ea577abc4e9af54165f76c208c87c784acc7",
      "blockNumber": "0x833a6b",
      "gasUsed": "0x4ce0d",
      "effectiveGasPrice": "0x7a33b",
      "from": "0xf52205f70531e62f7199d3f3835fddcd86791294",
      "to": "0x17578d954ec333f98993a6a179a5e6f84e8c9872",
      "contractAddress": null
    }
  ],
  "libraries": [],
  "pending": [],
  "returns": {},
  "timestamp": 1750544713,
  "chain": 11155111,
  "commit": null
}