{
  "transactions": [
    {
      "hash": "0x745faa3f85093a67037593ed85839cc446eedf33b639a7d1a1a582b9ce9f4ba1",
      "transactionType": "CALL",
      "contractName": null,
      "contractAddress": "0x2ee9a57a25345cf13e4510b547e12fa3ece372f2",
      "function": "applyChainUpdates(uint64[],(uint64,bytes[],bytes,(bool,uint128,uint128),(bool,uint128,uint128))[])",
      "arguments": [
        "[]",
        "[(6898391096552792247, [0x00000000000000000000000037cba088a84d8a0435b48c8567b3ee999fc68c28], 0x000000000000000000000000cb712094efb2cacd1ad04d6b40796a8f083ad3eb, (false, 0, 0), (false, 0, 0))]"
      ],
      "transaction": {
        "from": "0xf52205f70531e62f7199d3f3835fddcd86791294",
        "to": "0x2ee9a57a25345cf13e4510b547e12fa3ece372f2",
        "gas": "0x6a300",
        "value": "0x0",
        "input": "0xe8a1da17000000000000000000000000000000000000000000000000000000000000004000000000000000000000000000000000000000000000000000000000000000600000000000000000000000000000000000000000000000000000000000000000000000000000000000000000000000000000000000000000000000000000000100000000000000000000000000000000000000000000000000000000000000200000000000000000000000000000000000000000000000005fbc02272fbf20b7000000000000000000000000000000000000000000000000000000000000012000000000000000000000000000000000000000000000000000000000000001a000000000000000000000000000000000000000000000000000000000000000000000000000000000000000000000000000000000000000000000000000000000000000000000000000000000000000000000000000000000000000000000000000000000000000000000000000000000000000000000000000000000000000000000000000000000000000000000000000000000000000000000000000000000000000000000000000000000000000000000000000000000000000000000000000000000000000000000000000000000000000000000000000000000000000010000000000000000000000000000000000000000000000000000000000000020000000000000000000000000000000000000000000000000000000000000002000000000000000000000000037cba088a84d8a0435b48c8567b3ee999fc68c280000000000000000000000000000000000000000000000000000000000000020000000000000000000000000cb712094efb2cacd1ad04d6b40796a8f083ad3eb",
        "nonce": "0x2c",
        "chainId": "0xaa36a7"
      },
      "additionalContracts": [],
      "isFixedGasLimit": false
    }
  ],
  "receipts": [
    {
      "status": "0x1",
      "cumulativeGasUsed": "0x7168d3",
      "logs": [
        {
          "address": "0x2ee9a57a25345cf13e4510b547e12fa3ece372f2",
          "topics": [
            "0x7d628c9a1796743d365ab521a8b2a4686e419b3269919dc9145ea2ce853b54ea",
            "0x0000000000000000000000000000000000000000000000005fbc02272fbf20b7"
          ],
          "data": "0x0000000000000000000000000000000000000000000000000000000000000020000000000000000000000000000000000000000000000000000000000000002000000000000000000000000037cba088a84d8a0435b48c8567b3ee999fc68c28",
          "blockHash": "0xd64773be8a98e57762c7211ee03343eb34b2693e56674aff3bf170eae61fe758",
          "blockNumber": "0x8339bb",
          "blockTimestamp": "0x68572908",
          "transactionHash": "0x745faa3f85093a67037593ed85839cc446eedf33b639a7d1a1a582b9ce9f4ba1",
          "transactionIndex": "0x6e",
          "logIndex": "0x59",
          "removed": false
        },
        {
          "address": "0x2ee9a57a25345cf13e4510b547e12fa3ece372f2",
          "topics": [
            "0x8d340f17e19058004c20453540862a9c62778504476f6756755cb33bcd6c38c2"
          ],
          "data": "0x0000000000000000000000000000000000000000000000005fbc02272fbf20b700000000000000000000000000000000000000000000000000000000000001000000000000000000000000000000000000000000000000000000000000000000000000000000000000000000000000000000000000000000000000000000000000000000000000000000000000000000000000000000000000000000000000000000000000000000000000000000000000000000000000000000000000000000000000000000000000000000000000000000000000000000000000000000000000000000000000000000000000000000000000000000000000000000000000000000000000000000000000000000000000000000000000000000000000000020000000000000000000000000cb712094efb2cacd1ad04d6b40796a8f083ad3eb",
          "blockHash": "0xd64773be8a98e57762c7211ee03343eb34b2693e56674aff3bf170eae61fe758",
          "blockNumber": "0x8339bb",
          "blockTimestamp": "0x68572908",
          "transactionHash": "0x745faa3f85093a67037593ed85839cc446eedf33b639a7d1a1a582b9ce9f4ba1",
          "transactionIndex": "0x6e",
          "logIndex": "0x5a",
          "removed": false
        }
      ],
      "logsBloom": "0x00000000000000400000000000000000000000000000000000000000000000000000000000000000000000000000000000000000000000000004000000000004000000000000000000000000040000000000000000000000000000000000000000000000000000000000000000000040000000000000000000000000000000400000000000000000000000000000000000000000000000000000000000000000000000000000008000000000000000000000000000000000000000000000000000000000000000000000000000000000000000000000000000000000000000000000010000000000040000000000000000200000008000000100000000000000",
      "type": "0x2",
      "transactionHash": "0x745faa3f85093a67037593ed85839cc446eedf33b639a7d1a1a582b9ce9f4ba1",
      "transactionIndex": "0x6e",
      "blockHash": "0xd64773be8a98e57762c7211ee03343eb34b2693e56674aff3bf170eae61fe758",
      "blockNumber": "0x8339bb",
      "gasUsed": "0x4ce0d",
      "effectiveGasPrice": "0xf426b",
      "from": "0xf52205f70531e62f7199d3f3835fddcd86791294",
      "to": "0x2ee9a57a25345cf13e4510b547e12fa3ece372f2",
      "contractAddress": null
    }
  ],
  "libraries": [],
  "pending": [],
  "returns": {},
  "timestamp": 1750542603,
  "chain": 11155111,
  "commit": null
}