{
  "transactions": [
    {
      "hash": "0xb740219f9ed63010decd1844143cbc3b50870ff1cf0439666fb19132cce1315c",
      "transactionType": "CALL",
      "contractName": null,
      "contractAddress": "0x5870b5866af266d54c8f83985c5783db0e3f85da",
      "function": "applyChainUpdates(uint64[],(uint64,bytes[],bytes,(bool,uint128,uint128),(bool,uint128,uint128))[])",
      "arguments": [
        "[]",
        "[(6898391096552792247, [0x000000000000000000000000b6aa8e73e3234510f46ffd4e4bcde041cf449d27], 0x00000000000000000000000001c68b7b81f534612e604a941f0bf0956674e0e5, (false, 0, 0), (false, 0, 0))]"
      ],
      "transaction": {
        "from": "0xf52205f70531e62f7199d3f3835fddcd86791294",
        "to": "0x5870b5866af266d54c8f83985c5783db0e3f85da",
        "gas": "0x6a300",
        "value": "0x0",
        "input": "0xe8a1da17000000000000000000000000000000000000000000000000000000000000004000000000000000000000000000000000000000000000000000000000000000600000000000000000000000000000000000000000000000000000000000000000000000000000000000000000000000000000000000000000000000000000000100000000000000000000000000000000000000000000000000000000000000200000000000000000000000000000000000000000000000005fbc02272fbf20b7000000000000000000000000000000000000000000000000000000000000012000000000000000000000000000000000000000000000000000000000000001a0000000000000000000000000000000000000000000000000000000000000000000000000000000000000000000000000000000000000000000000000000000000000000000000000000000000000000000000000000000000000000000000000000000000000000000000000000000000000000000000000000000000000000000000000000000000000000000000000000000000000000000000000000000000000000000000000000000000000000000000000000000000000000000000000000000000000000000000000000000000000000000000000000000000000000100000000000000000000000000000000000000000000000000000000000000200000000000000000000000000000000000000000000000000000000000000020000000000000000000000000b6aa8e73e3234510f46ffd4e4bcde041cf449d27000000000000000000000000000000000000000000000000000000000000002000000000000000000000000001c68b7b81f534612e604a941f0bf0956674e0e5",
        "nonce": "0x62",
        "chainId": "0xaa36a7"
      },
      "additionalContracts": [],
      "isFixedGasLimit": false
    }
  ],
  "receipts": [
    {
      "status": "0x1",
      "cumulativeGasUsed": "0x256b700",
      "logs": [
        {
          "address": "0x5870b5866af266d54c8f83985c5783db0e3f85da",
          "topics": [
            "0x7d628c9a1796743d365ab521a8b2a4686e419b3269919dc9145ea2ce853b54ea",
            "0x0000000000000000000000000000000000000000000000005fbc02272fbf20b7"
          ],
          "data": "0x00000000000000000000000000000000000000000000000000000000000000200000000000000000000000000000000000000000000000000000000000000020000000000000000000000000b6aa8e73e3234510f46ffd4e4bcde041cf449d27",
          "blockHash": "0xfe6a033148cbb482fc5dfd95c6cd645c5945efe25f16243772db082d347b1f4e",
          "blockNumber": "0x834f21",
          "transactionHash": "0xb740219f9ed63010decd1844143cbc3b50870ff1cf0439666fb19132cce1315c",
          "transactionIndex": "0x90",
          "logIndex": "0xba",
          "removed": false
        },
        {
          "address": "0x5870b5866af266d54c8f83985c5783db0e3f85da",
          "topics": [
            "0x8d340f17e19058004c20453540862a9c62778504476f6756755cb33bcd6c38c2"
          ],
          "data": "0x0000000000000000000000000000000000000000000000005fbc02272fbf20b70000000000000000000000000000000000000000000000000000000000000100000000000000000000000000000000000000000000000000000000000000000000000000000000000000000000000000000000000000000000000000000000000000000000000000000000000000000000000000000000000000000000000000000000000000000000000000000000000000000000000000000000000000000000000000000000000000000000000000000000000000000000000000000000000000000000000000000000000000000000000000000000000000000000000000000000000000000000000000000000000000000000000000000000000000002000000000000000000000000001c68b7b81f534612e604a941f0bf0956674e0e5",
          "blockHash": "0xfe6a033148cbb482fc5dfd95c6cd645c5945efe25f16243772db082d347b1f4e",
          "blockNumber": "0x834f21",
          "transactionHash": "0xb740219f9ed63010decd1844143cbc3b50870ff1cf0439666fb19132cce1315c",
          "transactionIndex": "0x90",
          "logIndex": "0xbb",
          "removed": false
        }
      ],
      "logsBloom": "0x00000000000000400000000000000000000000000000000000000000000000000000000000000000000000000000000020000000000000000004000000000004000000000000000000000000040000000000000000000000000000000000000000000000000000000000000000000040000000000000000000000000000000400000000000000000000000000000000000000000000000000000000000000000000000000000008000000000000000000000000000000000000000000002000000000000000000000000000000000000000000000000000000000000000000400000000000000000000000000000000000000000008000000100000000000000",
      "type": "0x2",
      "transactionHash": "0xb740219f9ed63010decd1844143cbc3b50870ff1cf0439666fb19132cce1315c",
      "transactionIndex": "0x90",
      "blockHash": "0xfe6a033148cbb482fc5dfd95c6cd645c5945efe25f16243772db082d347b1f4e",
      "blockNumber": "0x834f21",
      "gasUsed": "0x4ce0d",
      "effectiveGasPrice": "0x11811c",
      "from": "0xf52205f70531e62f7199d3f3835fddcd86791294",
      "to": "0x5870b5866af266d54c8f83985c5783db0e3f85da",
      "contractAddress": null
    }
  ],
  "libraries": [],
  "pending": [],
  "returns": {},
  "timestamp": 1750608435,
  "chain": 11155111,
  "commit": null
}