{
  "transactions": [
    {
      "hash": "0x5a1702562dfb799ac784e79a3426f0ccee838747e0d3dd1e5604603ea12b5f03",
      "transactionType": "CALL",
      "contractName": null,
      "contractAddress": "0xbedc6a881ef649df92eaa6758fdcadeb2a6b548d",
      "function": "applyChainUpdates(uint64[],(uint64,bytes[],bytes,(bool,uint128,uint128),(bool,uint128,uint128))[])",
      "arguments": [
        "[]",
        "[(6898391096552792247, [0x00000000000000000000000063851aadc431eb0a4241cd6e9766ee0384ce2743], 0x000000000000000000000000024da887147da975dfca1e69471dd21d18ef0aad, (false, 0, 0), (false, 0, 0))]"
      ],
      "transaction": {
        "from": "0xf52205f70531e62f7199d3f3835fddcd86791294",
        "to": "0xbedc6a881ef649df92eaa6758fdcadeb2a6b548d",
        "gas": "0x6a300",
        "value": "0x0",
        "input": "0xe8a1da17000000000000000000000000000000000000000000000000000000000000004000000000000000000000000000000000000000000000000000000000000000600000000000000000000000000000000000000000000000000000000000000000000000000000000000000000000000000000000000000000000000000000000100000000000000000000000000000000000000000000000000000000000000200000000000000000000000000000000000000000000000005fbc02272fbf20b7000000000000000000000000000000000000000000000000000000000000012000000000000000000000000000000000000000000000000000000000000001a000000000000000000000000000000000000000000000000000000000000000000000000000000000000000000000000000000000000000000000000000000000000000000000000000000000000000000000000000000000000000000000000000000000000000000000000000000000000000000000000000000000000000000000000000000000000000000000000000000000000000000000000000000000000000000000000000000000000000000000000000000000000000000000000000000000000000000000000000000000000000000000000000000000000000010000000000000000000000000000000000000000000000000000000000000020000000000000000000000000000000000000000000000000000000000000002000000000000000000000000063851aadc431eb0a4241cd6e9766ee0384ce27430000000000000000000000000000000000000000000000000000000000000020000000000000000000000000024da887147da975dfca1e69471dd21d18ef0aad",
        "nonce": "0x8b",
        "chainId": "0xaa36a7"
      },
      "additionalContracts": [],
      "isFixedGasLimit": false
    }
  ],
  "receipts": [
    {
      "status": "0x1",
      "cumulativeGasUsed": "0x16ff9ac",
      "logs": [
        {
          "address": "0xbedc6a881ef649df92eaa6758fdcadeb2a6b548d",
          "topics": [
            "0x7d628c9a1796743d365ab521a8b2a4686e419b3269919dc9145ea2ce853b54ea",
            "0x0000000000000000000000000000000000000000000000005fbc02272fbf20b7"
          ],
          "data": "0x0000000000000000000000000000000000000000000000000000000000000020000000000000000000000000000000000000000000000000000000000000002000000000000000000000000063851aadc431eb0a4241cd6e9766ee0384ce2743",
          "blockHash": "0xf07b04fb5431493b834adb912afd99ed75de11929c23a122b4e8e16e8c52e079",
          "blockNumber": "0x8369ad",
          "transactionHash": "0x5a1702562dfb799ac784e79a3426f0ccee838747e0d3dd1e5604603ea12b5f03",
          "transactionIndex": "0xb0",
          "logIndex": "0xe3",
          "removed": false
        },
        {
          "address": "0xbedc6a881ef649df92eaa6758fdcadeb2a6b548d",
          "topics": [
            "0x8d340f17e19058004c20453540862a9c62778504476f6756755cb33bcd6c38c2"
          ],
          "data": "0x0000000000000000000000000000000000000000000000005fbc02272fbf20b700000000000000000000000000000000000000000000000000000000000001000000000000000000000000000000000000000000000000000000000000000000000000000000000000000000000000000000000000000000000000000000000000000000000000000000000000000000000000000000000000000000000000000000000000000000000000000000000000000000000000000000000000000000000000000000000000000000000000000000000000000000000000000000000000000000000000000000000000000000000000000000000000000000000000000000000000000000000000000000000000000000000000000000000000000020000000000000000000000000024da887147da975dfca1e69471dd21d18ef0aad",
          "blockHash": "0xf07b04fb5431493b834adb912afd99ed75de11929c23a122b4e8e16e8c52e079",
          "blockNumber": "0x8369ad",
          "transactionHash": "0x5a1702562dfb799ac784e79a3426f0ccee838747e0d3dd1e5604603ea12b5f03",
          "transactionIndex": "0xb0",
          "logIndex": "0xe4",
          "removed": false
        }
      ],
      "logsBloom": "0x00000000000000400000000000000000000000000000000000000000000000000000000000000000000000000000000000000000000000000004000800000004000000000000000000000000040000000000000000000000000000000000000000000000000000000001000000000040000000000000000000000000000000400000000000000000000000000000000000000000000000040000000000000000000000000000008000000000000000000000000000000000000000000000000000000000000000000000000000000000000000000000000000000000000000000000000000000000000000000000000000000000008000000100000000000000",
      "type": "0x2",
      "transactionHash": "0x5a1702562dfb799ac784e79a3426f0ccee838747e0d3dd1e5604603ea12b5f03",
      "transactionIndex": "0xb0",
      "blockHash": "0xf07b04fb5431493b834adb912afd99ed75de11929c23a122b4e8e16e8c52e079",
      "blockNumber": "0x8369ad",
      "gasUsed": "0x4ce0d",
      "effectiveGasPrice": "0x1323e364",
      "from": "0xf52205f70531e62f7199d3f3835fddcd86791294",
      "to": "0xbedc6a881ef649df92eaa6758fdcadeb2a6b548d",
      "contractAddress": null
    }
  ],
  "libraries": [],
  "pending": [],
  "returns": {},
  "timestamp": 1750690082,
  "chain": 11155111,
  "commit": null
}