{
  "transactions": [
    {
      "hash": "0xc65fcd2092e086f5f503c28c4fa8688c5533816342ec29050741698cb0babeb0",
      "transactionType": "CALL",
      "contractName": null,
      "contractAddress": "0x62630d6ed7b162a2f87f4914b25442e5f1f9106c",
      "function": "applyChainUpdates(uint64[],(uint64,bytes[],bytes,(bool,uint128,uint128),(bool,uint128,uint128))[])",
      "arguments": [
        "[]",
        "[(6898391096552792247, [0x000000000000000000000000e66c713a59221397374b9200eca7e190c2ecf48d], 0x000000000000000000000000bb9211a8340e8d8cdbd226d9c54cf0bd1160618d, (false, 0, 0), (false, 0, 0))]"
      ],
      "transaction": {
        "from": "0xf52205f70531e62f7199d3f3835fddcd86791294",
        "to": "0x62630d6ed7b162a2f87f4914b25442e5f1f9106c",
        "gas": "0x706e1",
        "value": "0x0",
        "input": "0xe8a1da17000000000000000000000000000000000000000000000000000000000000004000000000000000000000000000000000000000000000000000000000000000600000000000000000000000000000000000000000000000000000000000000000000000000000000000000000000000000000000000000000000000000000000100000000000000000000000000000000000000000000000000000000000000200000000000000000000000000000000000000000000000005fbc02272fbf20b7000000000000000000000000000000000000000000000000000000000000012000000000000000000000000000000000000000000000000000000000000001a0000000000000000000000000000000000000000000000000000000000000000000000000000000000000000000000000000000000000000000000000000000000000000000000000000000000000000000000000000000000000000000000000000000000000000000000000000000000000000000000000000000000000000000000000000000000000000000000000000000000000000000000000000000000000000000000000000000000000000000000000000000000000000000000000000000000000000000000000000000000000000000000000000000000000000100000000000000000000000000000000000000000000000000000000000000200000000000000000000000000000000000000000000000000000000000000020000000000000000000000000e66c713a59221397374b9200eca7e190c2ecf48d0000000000000000000000000000000000000000000000000000000000000020000000000000000000000000bb9211a8340e8d8cdbd226d9c54cf0bd1160618d",
        "nonce": "0x76",
        "chainId": "0xaa36a7"
      },
      "additionalContracts": [],
      "isFixedGasLimit": false
    }
  ],
  "receipts": [
    {
      "status": "0x1",
      "cumulativeGasUsed": "0x1c75d73",
      "logs": [
        {
          "address": "0x62630d6ed7b162a2f87f4914b25442e5f1f9106c",
          "topics": [
            "0x7d628c9a1796743d365ab521a8b2a4686e419b3269919dc9145ea2ce853b54ea",
            "0x0000000000000000000000000000000000000000000000005fbc02272fbf20b7"
          ],
          "data": "0x00000000000000000000000000000000000000000000000000000000000000200000000000000000000000000000000000000000000000000000000000000020000000000000000000000000e66c713a59221397374b9200eca7e190c2ecf48d",
          "blockHash": "0x107f8680b7343a4791aa23c593aa7d48078bb9e704afa53df19b364a30fe1445",
          "blockNumber": "0x8351bc",
          "transactionHash": "0xc65fcd2092e086f5f503c28c4fa8688c5533816342ec29050741698cb0babeb0",
          "transactionIndex": "0x132",
          "logIndex": "0x146",
          "removed": false
        },
        {
          "address": "0x62630d6ed7b162a2f87f4914b25442e5f1f9106c",
          "topics": [
            "0x8d340f17e19058004c20453540862a9c62778504476f6756755cb33bcd6c38c2"
          ],
          "data": "0x0000000000000000000000000000000000000000000000005fbc02272fbf20b700000000000000000000000000000000000000000000000000000000000001000000000000000000000000000000000000000000000000000000000000000000000000000000000000000000000000000000000000000000000000000000000000000000000000000000000000000000000000000000000000000000000000000000000000000000000000000000000000000000000000000000000000000000000000000000000000000000000000000000000000000000000000000000000000000000000000000000000000000000000000000000000000000000000000000000000000000000000000000000000000000000000000000000000000000020000000000000000000000000bb9211a8340e8d8cdbd226d9c54cf0bd1160618d",
          "blockHash": "0x107f8680b7343a4791aa23c593aa7d48078bb9e704afa53df19b364a30fe1445",
          "blockNumber": "0x8351bc",
          "transactionHash": "0xc65fcd2092e086f5f503c28c4fa8688c5533816342ec29050741698cb0babeb0",
          "transactionIndex": "0x132",
          "logIndex": "0x147",
          "removed": false
        }
      ],
      "logsBloom": "0x00000000000000400000000000000000000000000000000000000000000000000000000000000000000000000000000000000000000000000004000000000004000000000000000000000000040000000000000000000000000000000000000000000000000000000000000000000040000000000000000000000000000000400000000000000000000000000000000000000000000000000000000000000000000000000000008000000000000000000000000000000000000000000000000000000000000000000000000200000000000000000000000000000000000100000000000000000000000000000000000000000000008000000100000000000010",
      "type": "0x2",
      "transactionHash": "0xc65fcd2092e086f5f503c28c4fa8688c5533816342ec29050741698cb0babeb0",
      "transactionIndex": "0x132",
      "blockHash": "0x107f8680b7343a4791aa23c593aa7d48078bb9e704afa53df19b364a30fe1445",
      "blockNumber": "0x8351bc",
      "gasUsed": "0x4ce01",
      "effectiveGasPrice": "0xfc6d4",
      "from": "0xf52205f70531e62f7199d3f3835fddcd86791294",
      "to": "0x62630d6ed7b162a2f87f4914b25442e5f1f9106c",
      "contractAddress": null
    }
  ],
  "libraries": [],
  "pending": [],
  "returns": {},
  "timestamp": 1750616438,
  "chain": 11155111,
  "commit": null
}