{
  "transactions": [
    {
      "hash": "0x212b2191a9cac784be52d3055e896e30715530be0f1f88b31a2e404c9cef8d13",
      "transactionType": "CALL",
      "contractName": null,
      "contractAddress": "0x16e506d9cfe226ee275d957332ececcd6c21f133",
      "function": "applyChainUpdates(uint64[],(uint64,bytes[],bytes,(bool,uint128,uint128),(bool,uint128,uint128))[])",
      "arguments": [
        "[]",
        "[(6898391096552792247, [0x000000000000000000000000f164cad498f7f72689b5610b46edf98bbd89966c], 0x0000000000000000000000005ef31f8321059f152a3f19fa0729f797d77ee833, (false, 0, 0), (false, 0, 0))]"
      ],
      "transaction": {
        "from": "0xf52205f70531e62f7199d3f3835fddcd86791294",
        "to": "0x16e506d9cfe226ee275d957332ececcd6c21f133",
        "gas": "0x6a300",
        "value": "0x0",
        "input": "0xe8a1da17000000000000000000000000000000000000000000000000000000000000004000000000000000000000000000000000000000000000000000000000000000600000000000000000000000000000000000000000000000000000000000000000000000000000000000000000000000000000000000000000000000000000000100000000000000000000000000000000000000000000000000000000000000200000000000000000000000000000000000000000000000005fbc02272fbf20b7000000000000000000000000000000000000000000000000000000000000012000000000000000000000000000000000000000000000000000000000000001a0000000000000000000000000000000000000000000000000000000000000000000000000000000000000000000000000000000000000000000000000000000000000000000000000000000000000000000000000000000000000000000000000000000000000000000000000000000000000000000000000000000000000000000000000000000000000000000000000000000000000000000000000000000000000000000000000000000000000000000000000000000000000000000000000000000000000000000000000000000000000000000000000000000000000000100000000000000000000000000000000000000000000000000000000000000200000000000000000000000000000000000000000000000000000000000000020000000000000000000000000f164cad498f7f72689b5610b46edf98bbd89966c00000000000000000000000000000000000000000000000000000000000000200000000000000000000000005ef31f8321059f152a3f19fa0729f797d77ee833",
        "nonce": "0x6c",
        "chainId": "0xaa36a7"
      },
      "additionalContracts": [],
      "isFixedGasLimit": false
    }
  ],
  "receipts": [
    {
      "status": "0x1",
      "cumulativeGasUsed": "0x2b49687",
      "logs": [
        {
          "address": "0x16e506d9cfe226ee275d957332ececcd6c21f133",
          "topics": [
            "0x7d628c9a1796743d365ab521a8b2a4686e419b3269919dc9145ea2ce853b54ea",
            "0x0000000000000000000000000000000000000000000000005fbc02272fbf20b7"
          ],
          "data": "0x00000000000000000000000000000000000000000000000000000000000000200000000000000000000000000000000000000000000000000000000000000020000000000000000000000000f164cad498f7f72689b5610b46edf98bbd89966c",
          "blockHash": "0x8527d5a465a4cbea40830f12641f6dbcf9ece127505b708a2ac6dda08372b28c",
          "blockNumber": "0x835105",
          "transactionHash": "0x212b2191a9cac784be52d3055e896e30715530be0f1f88b31a2e404c9cef8d13",
          "transactionIndex": "0x71",
          "logIndex": "0x48",
          "removed": false
        },
        {
          "address": "0x16e506d9cfe226ee275d957332ececcd6c21f133",
          "topics": [
            "0x8d340f17e19058004c20453540862a9c62778504476f6756755cb33bcd6c38c2"
          ],
          "data": "0x0000000000000000000000000000000000000000000000005fbc02272fbf20b7000000000000000000000000000000000000000000000000000000000000010000000000000000000000000000000000000000000000000000000000000000000000000000000000000000000000000000000000000000000000000000000000000000000000000000000000000000000000000000000000000000000000000000000000000000000000000000000000000000000000000000000000000000000000000000000000000000000000000000000000000000000000000000000000000000000000000000000000000000000000000000000000000000000000000000000000000000000000000000000000000000000000000000000000000000200000000000000000000000005ef31f8321059f152a3f19fa0729f797d77ee833",
          "blockHash": "0x8527d5a465a4cbea40830f12641f6dbcf9ece127505b708a2ac6dda08372b28c",
          "blockNumber": "0x835105",
          "transactionHash": "0x212b2191a9cac784be52d3055e896e30715530be0f1f88b31a2e404c9cef8d13",
          "transactionIndex": "0x71",
          "logIndex": "0x49",
          "removed": false
        }
      ],
      "logsBloom": "0x00000000000000400000008000000000008000000000000000000000000000000000000000000000000000000000000000000000000000000004000000000004000000000000000000000000040000000000000000000000000000000000000000000000000000000000000000000040000000000000000000000000000000400000000000000000000000000000000000000000000000000000000000000000000000000000008000000000000000000000000000000000000000000000000000000000000000000000000000000000000000000000000000000000000000000000000000000000000000000000000000000000008000000100020000000000",
      "type": "0x2",
      "transactionHash": "0x212b2191a9cac784be52d3055e896e30715530be0f1f88b31a2e404c9cef8d13",
      "transactionIndex": "0x71",
      "blockHash": "0x8527d5a465a4cbea40830f12641f6dbcf9ece127505b708a2ac6dda08372b28c",
      "blockNumber": "0x835105",
      "gasUsed": "0x4ce0d",
      "effectiveGasPrice": "0x15d955",
      "from": "0xf52205f70531e62f7199d3f3835fddcd86791294",
      "to": "0x16e506d9cfe226ee275d957332ececcd6c21f133",
      "contractAddress": null
    }
  ],
  "libraries": [],
  "pending": [],
  "returns": {},
  "timestamp": 1750614242,
  "chain": 11155111,
  "commit": null
}