{
  "transactions": [
    {
      "hash": "0x25646d31bed1447b7058ddf8fc5ffc697c5daf6863d00b800426dec7939dee2e",
      "transactionType": "CALL",
      "contractName": null,
      "contractAddress": "0x5c4f817129191987a69f37678fadd443e9b755f8",
      "function": "applyChainUpdates(uint64[],(uint64,bytes[],bytes,(bool,uint128,uint128),(bool,uint128,uint128))[])",
      "arguments": [
        "[]",
        "[(6898391096552792247, [0x0000000000000000000000006c0b53feaccc8f87698e56572b7e0553872a13b8], 0x0000000000000000000000001cdcad7c43c4c110ba5c6da7494d338337a1da21, (true, 1000000000000000000000, 100000000000000000000), (true, 1000000000000000000000, 100000000000000000000))]"
      ],
      "transaction": {
        "from": "0xf52205f70531e62f7199d3f3835fddcd86791294",
        "to": "0x5c4f817129191987a69f37678fadd443e9b755f8",
        "gas": "0x7ecde",
        "value": "0x0",
        "input": "0xe8a1da17000000000000000000000000000000000000000000000000000000000000004000000000000000000000000000000000000000000000000000000000000000600000000000000000000000000000000000000000000000000000000000000000000000000000000000000000000000000000000000000000000000000000000100000000000000000000000000000000000000000000000000000000000000200000000000000000000000000000000000000000000000005fbc02272fbf20b7000000000000000000000000000000000000000000000000000000000000012000000000000000000000000000000000000000000000000000000000000001a0000000000000000000000000000000000000000000000000000000000000000100000000000000000000000000000000000000000000003635c9adc5dea000000000000000000000000000000000000000000000000000056bc75e2d63100000000000000000000000000000000000000000000000000000000000000000000100000000000000000000000000000000000000000000003635c9adc5dea000000000000000000000000000000000000000000000000000056bc75e2d631000000000000000000000000000000000000000000000000000000000000000000001000000000000000000000000000000000000000000000000000000000000002000000000000000000000000000000000000000000000000000000000000000200000000000000000000000006c0b53feaccc8f87698e56572b7e0553872a13b800000000000000000000000000000000000000000000000000000000000000200000000000000000000000001cdcad7c43c4c110ba5c6da7494d338337a1da21",
        "nonce": "0x1d",
        "chainId": "0xaa36a7"
      },
      "additionalContracts": [],
      "isFixedGasLimit": false
    }
  ],
  "receipts": [
    {
      "status": "0x1",
      "cumulativeGasUsed": "0xcaa368",
      "logs": [
        {
          "address": "0x5c4f817129191987a69f37678fadd443e9b755f8",
          "topics": [
            "0x7d628c9a1796743d365ab521a8b2a4686e419b3269919dc9145ea2ce853b54ea",
            "0x0000000000000000000000000000000000000000000000005fbc02272fbf20b7"
          ],
          "data": "0x000000000000000000000000000000000000000000000000000000000000002000000000000000000000000000000000000000000000000000000000000000200000000000000000000000006c0b53feaccc8f87698e56572b7e0553872a13b8",
          "blockHash": "0x57cc077f0dccff9213c3378910e41320498274d14534ba78cf13e2ca1fa16fe4",
          "blockNumber": "0x83356b",
          "blockTimestamp": "0x6856f530",
          "transactionHash": "0x25646d31bed1447b7058ddf8fc5ffc697c5daf6863d00b800426dec7939dee2e",
          "transactionIndex": "0x5b",
          "logIndex": "0x5f",
          "removed": false
        },
        {
          "address": "0x5c4f817129191987a69f37678fadd443e9b755f8",
          "topics": [
            "0x8d340f17e19058004c20453540862a9c62778504476f6756755cb33bcd6c38c2"
          ],
          "data": "0x0000000000000000000000000000000000000000000000005fbc02272fbf20b70000000000000000000000000000000000000000000000000000000000000100000000000000000000000000000000000000000000000000000000000000000100000000000000000000000000000000000000000000003635c9adc5dea000000000000000000000000000000000000000000000000000056bc75e2d63100000000000000000000000000000000000000000000000000000000000000000000100000000000000000000000000000000000000000000003635c9adc5dea000000000000000000000000000000000000000000000000000056bc75e2d6310000000000000000000000000000000000000000000000000000000000000000000200000000000000000000000001cdcad7c43c4c110ba5c6da7494d338337a1da21",
          "blockHash": "0x57cc077f0dccff9213c3378910e41320498274d14534ba78cf13e2ca1fa16fe4",
          "blockNumber": "0x83356b",
          "blockTimestamp": "0x6856f530",
          "transactionHash": "0x25646d31bed1447b7058ddf8fc5ffc697c5daf6863d00b800426dec7939dee2e",
          "transactionIndex": "0x5b",
          "logIndex": "0x60",
          "removed": false
        }
      ],
      "logsBloom": "0x00000000000000400000000000000000000000000000000000000000000000000000000000000000000000000000000000000000000000000004000000000004000000000000000000000000040000000000000000000000000000000000000000000000000000000000000000000040000000000000000000000000000000400000000000000000000000000000000000000000000000000000000000000000000000000000008200000000000000000000000000000000000000000000000000000000000000000000000000000000000000000000000000000000000000000000000040000000000000000400000000000000008000000100000000000000",
      "type": "0x2",
      "transactionHash": "0x25646d31bed1447b7058ddf8fc5ffc697c5daf6863d00b800426dec7939dee2e",
      "transactionIndex": "0x5b",
      "blockHash": "0x57cc077f0dccff9213c3378910e41320498274d14534ba78cf13e2ca1fa16fe4",
      "blockNumber": "0x83356b",
      "gasUsed": "0x56b43",
      "effectiveGasPrice": "0x104eb8",
      "from": "0xf52205f70531e62f7199d3f3835fddcd86791294",
      "to": "0x5c4f817129191987a69f37678fadd443e9b755f8",
      "contractAddress": null
    }
  ],
  "libraries": [],
  "pending": [],
  "returns": {},
  "timestamp": 1750529329,
  "chain": 11155111,
  "commit": null
}