{
  "transactions": [
    {
      "hash": "0x633eff1c74a926146c40c9757536a60c3e60709a61931a67370a2a475b1e1128",
      "transactionType": "CALL",
      "contractName": null,
      "contractAddress": "0x779877a7b0d9e8603169ddbd7836e478b4624789",
      "function": "approve(address,uint256)",
      "arguments": [
        "0x0BF3dE8c5D3e8A2B34D2BEeB17ABfCeBaf363A59",
        "20515534310204081"
      ],
      "transaction": {
        "from": "0xf52205f70531e62f7199d3f3835fddcd86791294",
        "to": "0x779877a7b0d9e8603169ddbd7836e478b4624789",
        "gas": "0x1081f",
        "value": "0x0",
        "input": "0x095ea7b30000000000000000000000000bf3de8c5d3e8a2b34d2beeb17abfcebaf363a590000000000000000000000000000000000000000000000000048e2c50eefe2b1",
        "nonce": "0xd5",
        "chainId": "0xaa36a7"
      },
      "additionalContracts": [],
      "isFixedGasLimit": false
    },
    {
      "hash": "0x7b937f937a1f021780584e42e2ae3f3ea8a6a5c150714fa678558fc91619cac0",
      "transactionType": "CALL",
      "contractName": null,
      "contractAddress": "0x479a2426f8bb3e3595b60910c3c37d0dc8a5277c",
      "function": "approve(address,uint256)",
      "arguments": [
        "0x0BF3dE8c5D3e8A2B34D2BEeB17ABfCeBaf363A59",
        "100000000000"
      ],
      "transaction": {
        "from": "0xf52205f70531e62f7199d3f3835fddcd86791294",
        "to": "0x479a2426f8bb3e3595b60910c3c37d0dc8a5277c",
        "gas": "0xfd30",
        "value": "0x0",
        "input": "0x095ea7b30000000000000000000000000bf3de8c5d3e8a2b34d2beeb17abfcebaf363a59000000000000000000000000000000000000000000000000000000174876e800",
        "nonce": "0xd6",
        "chainId": "0xaa36a7"
      },
      "additionalContracts": [],
      "isFixedGasLimit": false
    },
    {
      "hash": "0x35df60d39e60a33979d6b168a61681f47859bde4427373224485019e89525be1",
      "transactionType": "CALL",
      "contractName": null,
      "contractAddress": "0x0bf3de8c5d3e8a2b34d2beeb17abfcebaf363a59",
      "function": "ccipSend(uint64,(bytes,bytes,(address,uint256)[],address,bytes))",
      "arguments": [
        "6898391096552792247",
        "(0x000000000000000000000000f52205f70531e62f7199d3f3835fddcd86791294, 0x00000000000000000000000000000000000000000000000000000000000000200000000000000000000000000000000000000000000000000000000000000000, [(0x479A2426F8BB3E3595B60910C3C37d0DC8A5277c, 100000000000)], 0x779877A7B0D9E8603169DdbD7836e478b4624789, 0x97a657c90000000000000000000000000000000000000000000000000000000000000000)"
      ],
      "transaction": {
        "from": "0xf52205f70531e62f7199d3f3835fddcd86791294",
        "to": "0x0bf3de8c5d3e8a2b34d2beeb17abfcebaf363a59",
        "gas": "0x5b95f",
        "value": "0x0",
        "input": "0x96f4e9f90000000000000000000000000000000000000000000000005fbc02272fbf20b7000000000000000000000000000000000000000000000000000000000000004000000000000000000000000000000000000000000000000000000000000000a000000000000000000000000000000000000000000000000000000000000000e00000000000000000000000000000000000000000000000000000000000000140000000000000000000000000779877a7b0d9e8603169ddbd7836e478b462478900000000000000000000000000000000000000000000000000000000000001a00000000000000000000000000000000000000000000000000000000000000020000000000000000000000000f52205f70531e62f7199d3f3835fddcd867912940000000000000000000000000000000000000000000000000000000000000040000000000000000000000000000000000000000000000000000000000000002000000000000000000000000000000000000000000000000000000000000000000000000000000000000000000000000000000000000000000000000000000001000000000000000000000000479a2426f8bb3e3595b60910c3c37d0dc8a5277c000000000000000000000000000000000000000000000000000000174876e800000000000000000000000000000000000000000000000000000000000000002497a657c9000000000000000000000000000000000000000000000000000000000000000000000000000000000000000000000000000000000000000000000000",
        "nonce": "0xd7",
        "chainId": "0xaa36a7"
      },
      "additionalContracts": [],
      "isFixedGasLimit": false
    }
  ],
  "receipts": [
    {
      "status": "0x1",
      "cumulativeGasUsed": "0x20f4b0d",
      "logs": [
        {
          "address": "0x779877a7b0d9e8603169ddbd7836e478b4624789",
          "topics": [
            "0x8c5be1e5ebec7d5bd14f71427d1e84f3dd0314c0f7b2291e5b200ac8c7c3b925",
            "0x000000000000000000000000f52205f70531e62f7199d3f3835fddcd86791294",
            "0x0000000000000000000000000bf3de8c5d3e8a2b34d2beeb17abfcebaf363a59"
          ],
          "data": "0x0000000000000000000000000000000000000000000000000048e2c50eefe2b1",
          "blockHash": "0xce20e2d05f85521f348b02f8cb409700ae3f2281c6079d8eedd32a32d4714239",
          "blockNumber": "0x8376f2",
          "transactionHash": "0x633eff1c74a926146c40c9757536a60c3e60709a61931a67370a2a475b1e1128",
          "transactionIndex": "0x9a",
          "logIndex": "0xdd",
          "removed": false
        }
      ],
      "logsBloom": "0x00000004000040000000000000000000000000000000001000000000000000000000000000000000000000000000000000000000000000000000000000200000000000000000000000000000000000000000000000000000000000000000000000000000000100000000000000080000000000000000000000000000000000000000000000000000000000000000800000000000000000000000000000000000020000000000080000000000000000000000000000000000000000000000000000000000000000000000000000000000000000000000000100000000000000000010004000000000000000000000000000000000000000000000000000000000",
      "type": "0x2",
      "transactionHash": "0x633eff1c74a926146c40c9757536a60c3e60709a61931a67370a2a475b1e1128",
      "transactionIndex": "0x9a",
      "blockHash": "0xce20e2d05f85521f348b02f8cb409700ae3f2281c6079d8eedd32a32d4714239",
      "blockNumber": "0x8376f2",
      "gasUsed": "0xb499",
      "effectiveGasPrice": "0x1da31e",
      "from": "0xf52205f70531e62f7199d3f3835fddcd86791294",
      "to": "0x779877a7b0d9e8603169ddbd7836e478b4624789",
      "contractAddress": null
    },
    {
      "status": "0x1",
      "cumulativeGasUsed": "0x210025c",
      "logs": [
        {
          "address": "0x479a2426f8bb3e3595b60910c3c37d0dc8a5277c",
          "topics": [
            "0x8c5be1e5ebec7d5bd14f71427d1e84f3dd0314c0f7b2291e5b200ac8c7c3b925",
            "0x000000000000000000000000f52205f70531e62f7199d3f3835fddcd86791294",
            "0x0000000000000000000000000bf3de8c5d3e8a2b34d2beeb17abfcebaf363a59"
          ],
          "data": "0x000000000000000000000000000000000000000000000000000000174876e800",
          "blockHash": "0xce20e2d05f85521f348b02f8cb409700ae3f2281c6079d8eedd32a32d4714239",
          "blockNumber": "0x8376f2",
          "transactionHash": "0x7b937f937a1f021780584e42e2ae3f3ea8a6a5c150714fa678558fc91619cac0",
          "transactionIndex": "0x9b",
          "logIndex": "0xde",
          "removed": false
        }
      ],
      "logsBloom": "0x00000000000040000000000000000000000000000800001000000000000000000000000000000000000000000000000000000000000000000000000000200000000000000000000000000000000000000000000000000000000000000000000000000000000100000000000000080000000000000000000000000000000000000000000000000000000000000000000000000000000000000000000000000000020000000000080000000000000000000000000000000000000000000000000000000000000000000000000000000000000000000000000000000000000000000010004000000000000000000000000000000000000000000001000000000000",
      "type": "0x2",
      "transactionHash": "0x7b937f937a1f021780584e42e2ae3f3ea8a6a5c150714fa678558fc91619cac0",
      "transactionIndex": "0x9b",
      "blockHash": "0xce20e2d05f85521f348b02f8cb409700ae3f2281c6079d8eedd32a32d4714239",
      "blockNumber": "0x8376f2",
      "gasUsed": "0xb74f",
      "effectiveGasPrice": "0x1da31e",
      "from": "0xf52205f70531e62f7199d3f3835fddcd86791294",
      "to": "0x479a2426f8bb3e3595b60910c3c37d0dc8a5277c",
      "contractAddress": null
    },
    {
      "status": "0x1",
      "cumulativeGasUsed": "0x2142744",
      "logs": [
        {
          "address": "0x779877a7b0d9e8603169ddbd7836e478b4624789",
          "topics": [
            "0xddf252ad1be2c89b69c2b068fc378daa952ba7f163c4a11628f55a4df523b3ef",
            "0x000000000000000000000000f52205f70531e62f7199d3f3835fddcd86791294",
            "0x000000000000000000000000a2865e4f36760f5fa5c8f958336120f2df0d974b"
          ],
          "data": "0x0000000000000000000000000000000000000000000000000048e2c50eefe2b1",
          "blockHash": "0xce20e2d05f85521f348b02f8cb409700ae3f2281c6079d8eedd32a32d4714239",
          "blockNumber": "0x8376f2",
          "transactionHash": "0x35df60d39e60a33979d6b168a61681f47859bde4427373224485019e89525be1",
          "transactionIndex": "0x9c",
          "logIndex": "0xdf",
          "removed": false
        },
        {
          "address": "0x779877a7b0d9e8603169ddbd7836e478b4624789",
          "topics": [
            "0x8c5be1e5ebec7d5bd14f71427d1e84f3dd0314c0f7b2291e5b200ac8c7c3b925",
            "0x000000000000000000000000f52205f70531e62f7199d3f3835fddcd86791294",
            "0x0000000000000000000000000bf3de8c5d3e8a2b34d2beeb17abfcebaf363a59"
          ],
          "data": "0x0000000000000000000000000000000000000000000000000000000000000000",
          "blockHash": "0xce20e2d05f85521f348b02f8cb409700ae3f2281c6079d8eedd32a32d4714239",
          "blockNumber": "0x8376f2",
          "transactionHash": "0x35df60d39e60a33979d6b168a61681f47859bde4427373224485019e89525be1",
          "transactionIndex": "0x9c",
          "logIndex": "0xe0",
          "removed": false
        },
        {
          "address": "0x479a2426f8bb3e3595b60910c3c37d0dc8a5277c",
          "topics": [
            "0xddf252ad1be2c89b69c2b068fc378daa952ba7f163c4a11628f55a4df523b3ef",
            "0x0000000000000000000000000000000000000000000000000000000000000000",
            "0x000000000000000000000000f52205f70531e62f7199d3f3835fddcd86791294"
          ],
          "data": "0x000000000000000000000000000000000000000000000000000000000be2644d",
          "blockHash": "0xce20e2d05f85521f348b02f8cb409700ae3f2281c6079d8eedd32a32d4714239",
          "blockNumber": "0x8376f2",
          "transactionHash": "0x35df60d39e60a33979d6b168a61681f47859bde4427373224485019e89525be1",
          "transactionIndex": "0x9c",
          "logIndex": "0xe1",
          "removed": false
        },
        {
          "address": "0x479a2426f8bb3e3595b60910c3c37d0dc8a5277c",
          "topics": [
            "0xddf252ad1be2c89b69c2b068fc378daa952ba7f163c4a11628f55a4df523b3ef",
            "0x0000000000000000000000000000000000000000000000000000000000000000",
            "0x000000000000000000000000f39de7d593aabe4d9c73804700b8dc2227c57996"
          ],
          "data": "0x000000000000000000000000000000000000000000000000000001a47dfd0c00",
          "blockHash": "0xce20e2d05f85521f348b02f8cb409700ae3f2281c6079d8eedd32a32d4714239",
          "blockNumber": "0x8376f2",
          "transactionHash": "0x35df60d39e60a33979d6b168a61681f47859bde4427373224485019e89525be1",
          "transactionIndex": "0x9c",
          "logIndex": "0xe2",
          "removed": false
        },
        {
          "address": "0x479a2426f8bb3e3595b60910c3c37d0dc8a5277c",
          "topics": [
            "0xddf252ad1be2c89b69c2b068fc378daa952ba7f163c4a11628f55a4df523b3ef",
            "0x000000000000000000000000f52205f70531e62f7199d3f3835fddcd86791294",
            "0x000000000000000000000000f39de7d593aabe4d9c73804700b8dc2227c57996"
          ],
          "data": "0x000000000000000000000000000000000000000000000000000000174876e800",
          "blockHash": "0xce20e2d05f85521f348b02f8cb409700ae3f2281c6079d8eedd32a32d4714239",
          "blockNumber": "0x8376f2",
          "transactionHash": "0x35df60d39e60a33979d6b168a61681f47859bde4427373224485019e89525be1",
          "transactionIndex": "0x9c",
          "logIndex": "0xe3",
          "removed": false
        },
        {
          "address": "0x479a2426f8bb3e3595b60910c3c37d0dc8a5277c",
          "topics": [
            "0xddf252ad1be2c89b69c2b068fc378daa952ba7f163c4a11628f55a4df523b3ef",
            "0x0000000000000000000000000000000000000000000000000000000000000000",
            "0x000000000000000000000000f52205f70531e62f7199d3f3835fddcd86791294"
          ],
          "data": "0x0000000000000000000000000000000000000000000000000000000000000000",
          "blockHash": "0xce20e2d05f85521f348b02f8cb409700ae3f2281c6079d8eedd32a32d4714239",
          "blockNumber": "0x8376f2",
          "transactionHash": "0x35df60d39e60a33979d6b168a61681f47859bde4427373224485019e89525be1",
          "transactionIndex": "0x9c",
          "logIndex": "0xe4",
          "removed": false
        },
        {
          "address": "0x479a2426f8bb3e3595b60910c3c37d0dc8a5277c",
          "topics": [
            "0xddf252ad1be2c89b69c2b068fc378daa952ba7f163c4a11628f55a4df523b3ef",
            "0x0000000000000000000000000000000000000000000000000000000000000000",
            "0x000000000000000000000000f39de7d593aabe4d9c73804700b8dc2227c57996"
          ],
          "data": "0x0000000000000000000000000000000000000000000000000000000000000000",
          "blockHash": "0xce20e2d05f85521f348b02f8cb409700ae3f2281c6079d8eedd32a32d4714239",
          "blockNumber": "0x8376f2",
          "transactionHash": "0x35df60d39e60a33979d6b168a61681f47859bde4427373224485019e89525be1",
          "transactionIndex": "0x9c",
          "logIndex": "0xe5",
          "removed": false
        },
        {
          "address": "0x479a2426f8bb3e3595b60910c3c37d0dc8a5277c",
          "topics": [
            "0xddf252ad1be2c89b69c2b068fc378daa952ba7f163c4a11628f55a4df523b3ef",
            "0x000000000000000000000000f52205f70531e62f7199d3f3835fddcd86791294",
            "0x000000000000000000000000f39de7d593aabe4d9c73804700b8dc2227c57996"
          ],
          "data": "0x000000000000000000000000000000000000000000000000000000174876e800",
          "blockHash": "0xce20e2d05f85521f348b02f8cb409700ae3f2281c6079d8eedd32a32d4714239",
          "blockNumber": "0x8376f2",
          "transactionHash": "0x35df60d39e60a33979d6b168a61681f47859bde4427373224485019e89525be1",
          "transactionIndex": "0x9c",
          "logIndex": "0xe6",
          "removed": false
        },
        {
          "address": "0x479a2426f8bb3e3595b60910c3c37d0dc8a5277c",
          "topics": [
            "0xddf252ad1be2c89b69c2b068fc378daa952ba7f163c4a11628f55a4df523b3ef",
            "0x0000000000000000000000000000000000000000000000000000000000000000",
            "0x000000000000000000000000f39de7d593aabe4d9c73804700b8dc2227c57996"
          ],
          "data": "0x0000000000000000000000000000000000000000000000000000000000000000",
          "blockHash": "0xce20e2d05f85521f348b02f8cb409700ae3f2281c6079d8eedd32a32d4714239",
          "blockNumber": "0x8376f2",
          "transactionHash": "0x35df60d39e60a33979d6b168a61681f47859bde4427373224485019e89525be1",
          "transactionIndex": "0x9c",
          "logIndex": "0xe7",
          "removed": false
        },
        {
          "address": "0x479a2426f8bb3e3595b60910c3c37d0dc8a5277c",
          "topics": [
            "0xddf252ad1be2c89b69c2b068fc378daa952ba7f163c4a11628f55a4df523b3ef",
            "0x000000000000000000000000f39de7d593aabe4d9c73804700b8dc2227c57996",
            "0x0000000000000000000000000000000000000000000000000000000000000000"
          ],
          "data": "0x000000000000000000000000000000000000000000000000000000174876e800",
          "blockHash": "0xce20e2d05f85521f348b02f8cb409700ae3f2281c6079d8eedd32a32d4714239",
          "blockNumber": "0x8376f2",
          "transactionHash": "0x35df60d39e60a33979d6b168a61681f47859bde4427373224485019e89525be1",
          "transactionIndex": "0x9c",
          "logIndex": "0xe8",
          "removed": false
        },
        {
          "address": "0xa2865e4f36760f5fa5c8f958336120f2df0d974b",
          "topics": [
            "0xd0c3c799bf9e2639de44391e7f524d229b2b55f5b1ea94b2bf7da42f7243dddd"
          ],
          "data": "0x0000000000000000000000000000000000000000000000000000000000000020000000000000000000000000000000000000000000000000de41ba4fc9d91ad9000000000000000000000000f52205f70531e62f7199d3f3835fddcd86791294000000000000000000000000f52205f70531e62f7199d3f3835fddcd8679129400000000000000000000000000000000000000000000000000000000000002aa000000000000000000000000000000000000000000000000000000000000000000000000000000000000000000000000000000000000000000000000000000000000000000000000000000000000000000000000000000000000000000000001000000000000000000000000779877a7b0d9e8603169ddbd7836e478b46247890000000000000000000000000000000000000000000000000048e2c50eefe2b100000000000000000000000000000000000000000000000000000000000001a0000000000000000000000000000000000000000000000000000000000000020000000000000000000000000000000000000000000000000000000000000002603d65cb0d9fb8bead7794a98e4145b738c5af2fd93310166ac445f83e14ff86910000000000000000000000000000000000000000000000000000000000000040000000000000000000000000000000000000000000000000000000000000002000000000000000000000000000000000000000000000000000000000000000000000000000000000000000000000000000000000000000000000000000000001000000000000000000000000479a2426f8bb3e3595b60910c3c37d0dc8a5277c000000000000000000000000000000000000000000000000000000174876e8000000000000000000000000000000000000000000000000000000000000000001000000000000000000000000000000000000000000000000000000000000002000000000000000000000000000000000000000000000000000000000000001600000000000000000000000000000000000000000000000000000000000000020000000000000000000000000000000000000000000000000000000000000008000000000000000000000000000000000000000000000000000000000000000c000000000000000000000000000000000000000000000000000000000000001000000000000000000000000000000000000000000000000000000000000015f900000000000000000000000000000000000000000000000000000000000000020000000000000000000000000f39de7d593aabe4d9c73804700b8dc2227c57996000000000000000000000000000000000000000000000000000000000000002000000000000000000000000095960bd4d172ea75e8f8898a1ad72d1cc72c711100000000000000000000000000000000000000000000000000000000000000200000000000000000000000000000000000000000000000000000000ba43b7400",
          "blockHash": "0xce20e2d05f85521f348b02f8cb409700ae3f2281c6079d8eedd32a32d4714239",
          "blockNumber": "0x8376f2",
          "transactionHash": "0x35df60d39e60a33979d6b168a61681f47859bde4427373224485019e89525be1",
          "transactionIndex": "0x9c",
          "logIndex": "0xe9",
          "removed": false
        }
      ],
      "logsBloom": "0x00000004000040000000000000000000000000000800001000000000000000000000000000000000000000000000000000000000000000000000000000200000000000000000000000000008000000000000000000000000000004000000000010000000020100000000000000080800000000000000100000000010000000000000000000000000000000000000800000000000000000000000000000000000021000000000080400000000000000000000000000000000000100010000000000000002000000000000000000000000000000000100000100000000001020000010804000000000000000000000000004000800000000000001000000000000",
      "type": "0x2",
      "transactionHash": "0x35df60d39e60a33979d6b168a61681f47859bde4427373224485019e89525be1",
      "transactionIndex": "0x9c",
      "blockHash": "0xce20e2d05f85521f348b02f8cb409700ae3f2281c6079d8eedd32a32d4714239",
      "blockNumber": "0x8376f2",
      "gasUsed": "0x424e8",
      "effectiveGasPrice": "0x1da31e",
      "from": "0xf52205f70531e62f7199d3f3835fddcd86791294",
      "to": "0x0bf3de8c5d3e8a2b34d2beeb17abfcebaf363a59",
      "contractAddress": null
    }
  ],
  "libraries": [],
  "pending": [],
  "returns": {},
  "timestamp": 1750730881,
  "chain": 11155111,
  "commit": null
}